{
	"compilerInput": "{\"language\":\"Solidity\",\"sources\":{\"contracts/Loterie.sol\":{\"content\":\"// SPDX-License-Identifier: GPL-3.0\\n\\npragma solidity >=0.7.0 <0.9.0;\\n\\n/**\\n * @title Loterie\\n * @dev Store & retrieve value in a variable\\n */\\ncontract Loterie {\\n\\n    uint256 private randNonce;\\n    uint256 public price;\\n\\n    address[]  participants;\\n    address owner;\\n\\n    constructor(uint256 p){\\n        owner = msg.sender;\\n        price = p * 10**16;\\n    }\\n\\n    function randomDraw() public returns (address) {\\n        require(msg.sender == owner, \\\"Only owner can do that!\\\");\\n        require(participants.length > 2, \\\"The numbers of participants must be larger than 2\\\");\\n\\n        address winner = participants[random(participants.length)];\\n        payable(winner).transfer(address(this).balance);\\n\\n        delete participants;\\n\\n        return winner;\\n    }\\n\\n    function random(uint _modulus) private returns (uint) {\\n        randNonce++; // Variable d’état à déclarer et initialiser à 0\\n        return\\n            uint(\\n                keccak256(\\n                    abi.encodePacked(block.timestamp, msg.sender,\\n                    randNonce)\\n                )\\n            ) % _modulus;\\n    }\\n    \\n    function getSolde() public view returns (uint) {\\n        return address(this).balance;\\n    }\\n\\n    function participate() public payable {\\n        require(msg.sender != owner,\\\"Owner can't participate\\\");\\n        require(msg.value == price, \\\"Price must be equal to the price defined by the owner of the lottery\\\");\\n\\n        bool isAlreadyParticipant = false;\\n\\n        for (uint256 i = 0; i < participants.length; i++) {\\n            if (participants[i] == msg.sender) {\\n                isAlreadyParticipant = true;\\n                break;\\n            }\\n        }\\n        require(!isAlreadyParticipant, \\\"A participant cannot participate several times\\\");\\n        \\n        participants.push(msg.sender);\\n    }\\n}\"}},\"settings\":{\"optimizer\":{\"enabled\":false,\"runs\":200},\"outputSelection\":{\"*\":{\"\":[\"ast\"],\"*\":[\"abi\",\"metadata\",\"devdoc\",\"userdoc\",\"storageLayout\",\"evm.legacyAssembly\",\"evm.bytecode\",\"evm.deployedBytecode\",\"evm.methodIdentifiers\",\"evm.gasEstimates\",\"evm.assembly\"]}},\"remappings\":[]}}",
	"name": "Loterie",
	"bytecode": {
		"linkReferences": {},
		"object": "608060405234801561000f575f5ffd5b50604051610b6f380380610b6f833981810160405281019061003191906100c7565b3360035f6101000a81548173ffffffffffffffffffffffffffffffffffffffff021916908373ffffffffffffffffffffffffffffffffffffffff160217905550662386f26fc1000081610084919061011f565b60018190555050610160565b5f5ffd5b5f819050919050565b6100a681610094565b81146100b0575f5ffd5b50565b5f815190506100c18161009d565b92915050565b5f602082840312156100dc576100db610090565b5b5f6100e9848285016100b3565b91505092915050565b7f4e487b71000000000000000000000000000000000000000000000000000000005f52601160045260245ffd5b5f61012982610094565b915061013483610094565b925082820261014281610094565b91508282048414831517610159576101586100f2565b5b5092915050565b610a028061016d5f395ff3fe60806040526004361061003e575f3560e01c80631e62e2021461004257806355e5ae041461006c578063a035b1fe14610096578063d11711a2146100c0575b5f5ffd5b34801561004d575f5ffd5b506100566100ca565b6040516100639190610533565b60405180910390f35b348015610077575f5ffd5b50610080610245565b60405161008d9190610564565b60405180910390f35b3480156100a1575f5ffd5b506100aa61024c565b6040516100b79190610564565b60405180910390f35b6100c8610252565b005b5f60035f9054906101000a900473ffffffffffffffffffffffffffffffffffffffff1673ffffffffffffffffffffffffffffffffffffffff163373ffffffffffffffffffffffffffffffffffffffff161461015a576040517f08c379a0000000000000000000000000000000000000000000000000000000008152600401610151906105d7565b60405180910390fd5b60028080549050116101a1576040517f08c379a000000000000000000000000000000000000000000000000000000000815260040161019890610665565b60405180910390fd5b5f60026101b2600280549050610464565b815481106101c3576101c2610683565b5b905f5260205f20015f9054906101000a900473ffffffffffffffffffffffffffffffffffffffff1690508073ffffffffffffffffffffffffffffffffffffffff166108fc4790811502906040515f60405180830381858888f19350505050158015610230573d5f5f3e3d5ffd5b5060025f61023e91906104bb565b8091505090565b5f47905090565b60015481565b60035f9054906101000a900473ffffffffffffffffffffffffffffffffffffffff1673ffffffffffffffffffffffffffffffffffffffff163373ffffffffffffffffffffffffffffffffffffffff16036102e1576040517f08c379a00000000000000000000000000000000000000000000000000000000081526004016102d8906106fa565b60405180910390fd5b6001543414610325576040517f08c379a000000000000000000000000000000000000000000000000000000000815260040161031c906107ae565b60405180910390fd5b5f5f90505f5f90505b6002805490508110156103bf573373ffffffffffffffffffffffffffffffffffffffff166002828154811061036657610365610683565b5b905f5260205f20015f9054906101000a900473ffffffffffffffffffffffffffffffffffffffff1673ffffffffffffffffffffffffffffffffffffffff16036103b257600191506103bf565b808060010191505061032e565b508015610401576040517f08c379a00000000000000000000000000000000000000000000000000000000081526004016103f89061083c565b60405180910390fd5b600233908060018154018082558091505060019003905f5260205f20015f9091909190916101000a81548173ffffffffffffffffffffffffffffffffffffffff021916908373ffffffffffffffffffffffffffffffffffffffff16021790555050565b5f5f5f81548092919061047690610887565b91905055508142335f5460405160200161049293929190610933565b604051602081830303815290604052805190602001205f1c6104b4919061099c565b9050919050565b5080545f8255905f5260205f20908101906104d691906104d9565b50565b5b808211156104f0575f815f9055506001016104da565b5090565b5f73ffffffffffffffffffffffffffffffffffffffff82169050919050565b5f61051d826104f4565b9050919050565b61052d81610513565b82525050565b5f6020820190506105465f830184610524565b92915050565b5f819050919050565b61055e8161054c565b82525050565b5f6020820190506105775f830184610555565b92915050565b5f82825260208201905092915050565b7f4f6e6c79206f776e65722063616e20646f2074686174210000000000000000005f82015250565b5f6105c160178361057d565b91506105cc8261058d565b602082019050919050565b5f6020820190508181035f8301526105ee816105b5565b9050919050565b7f546865206e756d62657273206f66207061727469636970616e7473206d7573745f8201527f206265206c6172676572207468616e2032000000000000000000000000000000602082015250565b5f61064f60318361057d565b915061065a826105f5565b604082019050919050565b5f6020820190508181035f83015261067c81610643565b9050919050565b7f4e487b71000000000000000000000000000000000000000000000000000000005f52603260045260245ffd5b7f4f776e65722063616e27742070617274696369706174650000000000000000005f82015250565b5f6106e460178361057d565b91506106ef826106b0565b602082019050919050565b5f6020820190508181035f830152610711816106d8565b9050919050565b7f5072696365206d75737420626520657175616c20746f207468652070726963655f8201527f20646566696e656420627920746865206f776e6572206f6620746865206c6f7460208201527f7465727900000000000000000000000000000000000000000000000000000000604082015250565b5f61079860448361057d565b91506107a382610718565b606082019050919050565b5f6020820190508181035f8301526107c58161078c565b9050919050565b7f41207061727469636970616e742063616e6e6f742070617274696369706174655f8201527f207365766572616c2074696d6573000000000000000000000000000000000000602082015250565b5f610826602e8361057d565b9150610831826107cc565b604082019050919050565b5f6020820190508181035f8301526108538161081a565b9050919050565b7f4e487b71000000000000000000000000000000000000000000000000000000005f52601160045260245ffd5b5f6108918261054c565b91507fffffffffffffffffffffffffffffffffffffffffffffffffffffffffffffffff82036108c3576108c261085a565b5b600182019050919050565b5f819050919050565b6108e86108e38261054c565b6108ce565b82525050565b5f8160601b9050919050565b5f610904826108ee565b9050919050565b5f610915826108fa565b9050919050565b61092d61092882610513565b61090b565b82525050565b5f61093e82866108d7565b60208201915061094e828561091c565b60148201915061095e82846108d7565b602082019150819050949350505050565b7f4e487b71000000000000000000000000000000000000000000000000000000005f52601260045260245ffd5b5f6109a68261054c565b91506109b18361054c565b9250826109c1576109c061096f565b5b82820690509291505056fea26469706673582212206451e2371cc71aceb40a58ec647a9fb0f7f2b44080eaaebe1ffa3268fec90f8e64736f6c634300081e0033",
		"opcodes": "PUSH1 0x80 PUSH1 0x40 MSTORE CALLVALUE DUP1 ISZERO PUSH2 0xF JUMPI PUSH0 PUSH0 REVERT JUMPDEST POP PUSH1 0x40 MLOAD PUSH2 0xB6F CODESIZE SUB DUP1 PUSH2 0xB6F DUP4 CODECOPY DUP2 DUP2 ADD PUSH1 0x40 MSTORE DUP2 ADD SWAP1 PUSH2 0x31 SWAP2 SWAP1 PUSH2 0xC7 JUMP JUMPDEST CALLER PUSH1 0x3 PUSH0 PUSH2 0x100 EXP DUP2 SLOAD DUP2 PUSH20 0xFFFFFFFFFFFFFFFFFFFFFFFFFFFFFFFFFFFFFFFF MUL NOT AND SWAP1 DUP4 PUSH20 0xFFFFFFFFFFFFFFFFFFFFFFFFFFFFFFFFFFFFFFFF AND MUL OR SWAP1 SSTORE POP PUSH7 0x2386F26FC10000 DUP2 PUSH2 0x84 SWAP2 SWAP1 PUSH2 0x11F JUMP JUMPDEST PUSH1 0x1 DUP2 SWAP1 SSTORE POP POP PUSH2 0x160 JUMP JUMPDEST PUSH0 PUSH0 REVERT JUMPDEST PUSH0 DUP2 SWAP1 POP SWAP2 SWAP1 POP JUMP JUMPDEST PUSH2 0xA6 DUP2 PUSH2 0x94 JUMP JUMPDEST DUP2 EQ PUSH2 0xB0 JUMPI PUSH0 PUSH0 REVERT JUMPDEST POP JUMP JUMPDEST PUSH0 DUP2 MLOAD SWAP1 POP PUSH2 0xC1 DUP2 PUSH2 0x9D JUMP JUMPDEST SWAP3 SWAP2 POP POP JUMP JUMPDEST PUSH0 PUSH1 0x20 DUP3 DUP5 SUB SLT ISZERO PUSH2 0xDC JUMPI PUSH2 0xDB PUSH2 0x90 JUMP JUMPDEST JUMPDEST PUSH0 PUSH2 0xE9 DUP5 DUP3 DUP6 ADD PUSH2 0xB3 JUMP JUMPDEST SWAP2 POP POP SWAP3 SWAP2 POP POP JUMP JUMPDEST PUSH32 0x4E487B7100000000000000000000000000000000000000000000000000000000 PUSH0 MSTORE PUSH1 0x11 PUSH1 0x4 MSTORE PUSH1 0x24 PUSH0 REVERT JUMPDEST PUSH0 PUSH2 0x129 DUP3 PUSH2 0x94 JUMP JUMPDEST SWAP2 POP PUSH2 0x134 DUP4 PUSH2 0x94 JUMP JUMPDEST SWAP3 POP DUP3 DUP3 MUL PUSH2 0x142 DUP2 PUSH2 0x94 JUMP JUMPDEST SWAP2 POP DUP3 DUP3 DIV DUP5 EQ DUP4 ISZERO OR PUSH2 0x159 JUMPI PUSH2 0x158 PUSH2 0xF2 JUMP JUMPDEST JUMPDEST POP SWAP3 SWAP2 POP POP JUMP JUMPDEST PUSH2 0xA02 DUP1 PUSH2 0x16D PUSH0 CODECOPY PUSH0 RETURN INVALID PUSH1 0x80 PUSH1 0x40 MSTORE PUSH1 0x4 CALLDATASIZE LT PUSH2 0x3E JUMPI PUSH0 CALLDATALOAD PUSH1 0xE0 SHR DUP1 PUSH4 0x1E62E202 EQ PUSH2 0x42 JUMPI DUP1 PUSH4 0x55E5AE04 EQ PUSH2 0x6C JUMPI DUP1 PUSH4 0xA035B1FE EQ PUSH2 0x96 JUMPI DUP1 PUSH4 0xD11711A2 EQ PUSH2 0xC0 JUMPI JUMPDEST PUSH0 PUSH0 REVERT JUMPDEST CALLVALUE DUP1 ISZERO PUSH2 0x4D JUMPI PUSH0 PUSH0 REVERT JUMPDEST POP PUSH2 0x56 PUSH2 0xCA JUMP JUMPDEST PUSH1 0x40 MLOAD PUSH2 0x63 SWAP2 SWAP1 PUSH2 0x533 JUMP JUMPDEST PUSH1 0x40 MLOAD DUP1 SWAP2 SUB SWAP1 RETURN JUMPDEST CALLVALUE DUP1 ISZERO PUSH2 0x77 JUMPI PUSH0 PUSH0 REVERT JUMPDEST POP PUSH2 0x80 PUSH2 0x245 JUMP JUMPDEST PUSH1 0x40 MLOAD PUSH2 0x8D SWAP2 SWAP1 PUSH2 0x564 JUMP JUMPDEST PUSH1 0x40 MLOAD DUP1 SWAP2 SUB SWAP1 RETURN JUMPDEST CALLVALUE DUP1 ISZERO PUSH2 0xA1 JUMPI PUSH0 PUSH0 REVERT JUMPDEST POP PUSH2 0xAA PUSH2 0x24C JUMP JUMPDEST PUSH1 0x40 MLOAD PUSH2 0xB7 SWAP2 SWAP1 PUSH2 0x564 JUMP JUMPDEST PUSH1 0x40 MLOAD DUP1 SWAP2 SUB SWAP1 RETURN JUMPDEST PUSH2 0xC8 PUSH2 0x252 JUMP JUMPDEST STOP JUMPDEST PUSH0 PUSH1 0x3 PUSH0 SWAP1 SLOAD SWAP1 PUSH2 0x100 EXP SWAP1 DIV PUSH20 0xFFFFFFFFFFFFFFFFFFFFFFFFFFFFFFFFFFFFFFFF AND PUSH20 0xFFFFFFFFFFFFFFFFFFFFFFFFFFFFFFFFFFFFFFFF AND CALLER PUSH20 0xFFFFFFFFFFFFFFFFFFFFFFFFFFFFFFFFFFFFFFFF AND EQ PUSH2 0x15A JUMPI PUSH1 0x40 MLOAD PUSH32 0x8C379A000000000000000000000000000000000000000000000000000000000 DUP2 MSTORE PUSH1 0x4 ADD PUSH2 0x151 SWAP1 PUSH2 0x5D7 JUMP JUMPDEST PUSH1 0x40 MLOAD DUP1 SWAP2 SUB SWAP1 REVERT JUMPDEST PUSH1 0x2 DUP1 DUP1 SLOAD SWAP1 POP GT PUSH2 0x1A1 JUMPI PUSH1 0x40 MLOAD PUSH32 0x8C379A000000000000000000000000000000000000000000000000000000000 DUP2 MSTORE PUSH1 0x4 ADD PUSH2 0x198 SWAP1 PUSH2 0x665 JUMP JUMPDEST PUSH1 0x40 MLOAD DUP1 SWAP2 SUB SWAP1 REVERT JUMPDEST PUSH0 PUSH1 0x2 PUSH2 0x1B2 PUSH1 0x2 DUP1 SLOAD SWAP1 POP PUSH2 0x464 JUMP JUMPDEST DUP2 SLOAD DUP2 LT PUSH2 0x1C3 JUMPI PUSH2 0x1C2 PUSH2 0x683 JUMP JUMPDEST JUMPDEST SWAP1 PUSH0 MSTORE PUSH1 0x20 PUSH0 KECCAK256 ADD PUSH0 SWAP1 SLOAD SWAP1 PUSH2 0x100 EXP SWAP1 DIV PUSH20 0xFFFFFFFFFFFFFFFFFFFFFFFFFFFFFFFFFFFFFFFF AND SWAP1 POP DUP1 PUSH20 0xFFFFFFFFFFFFFFFFFFFFFFFFFFFFFFFFFFFFFFFF AND PUSH2 0x8FC SELFBALANCE SWAP1 DUP2 ISZERO MUL SWAP1 PUSH1 0x40 MLOAD PUSH0 PUSH1 0x40 MLOAD DUP1 DUP4 SUB DUP2 DUP6 DUP9 DUP9 CALL SWAP4 POP POP POP POP ISZERO DUP1 ISZERO PUSH2 0x230 JUMPI RETURNDATASIZE PUSH0 PUSH0 RETURNDATACOPY RETURNDATASIZE PUSH0 REVERT JUMPDEST POP PUSH1 0x2 PUSH0 PUSH2 0x23E SWAP2 SWAP1 PUSH2 0x4BB JUMP JUMPDEST DUP1 SWAP2 POP POP SWAP1 JUMP JUMPDEST PUSH0 SELFBALANCE SWAP1 POP SWAP1 JUMP JUMPDEST PUSH1 0x1 SLOAD DUP2 JUMP JUMPDEST PUSH1 0x3 PUSH0 SWAP1 SLOAD SWAP1 PUSH2 0x100 EXP SWAP1 DIV PUSH20 0xFFFFFFFFFFFFFFFFFFFFFFFFFFFFFFFFFFFFFFFF AND PUSH20 0xFFFFFFFFFFFFFFFFFFFFFFFFFFFFFFFFFFFFFFFF AND CALLER PUSH20 0xFFFFFFFFFFFFFFFFFFFFFFFFFFFFFFFFFFFFFFFF AND SUB PUSH2 0x2E1 JUMPI PUSH1 0x40 MLOAD PUSH32 0x8C379A000000000000000000000000000000000000000000000000000000000 DUP2 MSTORE PUSH1 0x4 ADD PUSH2 0x2D8 SWAP1 PUSH2 0x6FA JUMP JUMPDEST PUSH1 0x40 MLOAD DUP1 SWAP2 SUB SWAP1 REVERT JUMPDEST PUSH1 0x1 SLOAD CALLVALUE EQ PUSH2 0x325 JUMPI PUSH1 0x40 MLOAD PUSH32 0x8C379A000000000000000000000000000000000000000000000000000000000 DUP2 MSTORE PUSH1 0x4 ADD PUSH2 0x31C SWAP1 PUSH2 0x7AE JUMP JUMPDEST PUSH1 0x40 MLOAD DUP1 SWAP2 SUB SWAP1 REVERT JUMPDEST PUSH0 PUSH0 SWAP1 POP PUSH0 PUSH0 SWAP1 POP JUMPDEST PUSH1 0x2 DUP1 SLOAD SWAP1 POP DUP2 LT ISZERO PUSH2 0x3BF JUMPI CALLER PUSH20 0xFFFFFFFFFFFFFFFFFFFFFFFFFFFFFFFFFFFFFFFF AND PUSH1 0x2 DUP3 DUP2 SLOAD DUP2 LT PUSH2 0x366 JUMPI PUSH2 0x365 PUSH2 0x683 JUMP JUMPDEST JUMPDEST SWAP1 PUSH0 MSTORE PUSH1 0x20 PUSH0 KECCAK256 ADD PUSH0 SWAP1 SLOAD SWAP1 PUSH2 0x100 EXP SWAP1 DIV PUSH20 0xFFFFFFFFFFFFFFFFFFFFFFFFFFFFFFFFFFFFFFFF AND PUSH20 0xFFFFFFFFFFFFFFFFFFFFFFFFFFFFFFFFFFFFFFFF AND SUB PUSH2 0x3B2 JUMPI PUSH1 0x1 SWAP2 POP PUSH2 0x3BF JUMP JUMPDEST DUP1 DUP1 PUSH1 0x1 ADD SWAP2 POP POP PUSH2 0x32E JUMP JUMPDEST POP DUP1 ISZERO PUSH2 0x401 JUMPI PUSH1 0x40 MLOAD PUSH32 0x8C379A000000000000000000000000000000000000000000000000000000000 DUP2 MSTORE PUSH1 0x4 ADD PUSH2 0x3F8 SWAP1 PUSH2 0x83C JUMP JUMPDEST PUSH1 0x40 MLOAD DUP1 SWAP2 SUB SWAP1 REVERT JUMPDEST PUSH1 0x2 CALLER SWAP1 DUP1 PUSH1 0x1 DUP2 SLOAD ADD DUP1 DUP3 SSTORE DUP1 SWAP2 POP POP PUSH1 0x1 SWAP1 SUB SWAP1 PUSH0 MSTORE PUSH1 0x20 PUSH0 KECCAK256 ADD PUSH0 SWAP1 SWAP2 SWAP1 SWAP2 SWAP1 SWAP2 PUSH2 0x100 EXP DUP2 SLOAD DUP2 PUSH20 0xFFFFFFFFFFFFFFFFFFFFFFFFFFFFFFFFFFFFFFFF MUL NOT AND SWAP1 DUP4 PUSH20 0xFFFFFFFFFFFFFFFFFFFFFFFFFFFFFFFFFFFFFFFF AND MUL OR SWAP1 SSTORE POP POP JUMP JUMPDEST PUSH0 PUSH0 PUSH0 DUP2 SLOAD DUP1 SWAP3 SWAP2 SWAP1 PUSH2 0x476 SWAP1 PUSH2 0x887 JUMP JUMPDEST SWAP2 SWAP1 POP SSTORE POP DUP2 TIMESTAMP CALLER PUSH0 SLOAD PUSH1 0x40 MLOAD PUSH1 0x20 ADD PUSH2 0x492 SWAP4 SWAP3 SWAP2 SWAP1 PUSH2 0x933 JUMP JUMPDEST PUSH1 0x40 MLOAD PUSH1 0x20 DUP2 DUP4 SUB SUB DUP2 MSTORE SWAP1 PUSH1 0x40 MSTORE DUP1 MLOAD SWAP1 PUSH1 0x20 ADD KECCAK256 PUSH0 SHR PUSH2 0x4B4 SWAP2 SWAP1 PUSH2 0x99C JUMP JUMPDEST SWAP1 POP SWAP2 SWAP1 POP JUMP JUMPDEST POP DUP1 SLOAD PUSH0 DUP3 SSTORE SWAP1 PUSH0 MSTORE PUSH1 0x20 PUSH0 KECCAK256 SWAP1 DUP2 ADD SWAP1 PUSH2 0x4D6 SWAP2 SWAP1 PUSH2 0x4D9 JUMP JUMPDEST POP JUMP JUMPDEST JUMPDEST DUP1 DUP3 GT ISZERO PUSH2 0x4F0 JUMPI PUSH0 DUP2 PUSH0 SWAP1 SSTORE POP PUSH1 0x1 ADD PUSH2 0x4DA JUMP JUMPDEST POP SWAP1 JUMP JUMPDEST PUSH0 PUSH20 0xFFFFFFFFFFFFFFFFFFFFFFFFFFFFFFFFFFFFFFFF DUP3 AND SWAP1 POP SWAP2 SWAP1 POP JUMP JUMPDEST PUSH0 PUSH2 0x51D DUP3 PUSH2 0x4F4 JUMP JUMPDEST SWAP1 POP SWAP2 SWAP1 POP JUMP JUMPDEST PUSH2 0x52D DUP2 PUSH2 0x513 JUMP JUMPDEST DUP3 MSTORE POP POP JUMP JUMPDEST PUSH0 PUSH1 0x20 DUP3 ADD SWAP1 POP PUSH2 0x546 PUSH0 DUP4 ADD DUP5 PUSH2 0x524 JUMP JUMPDEST SWAP3 SWAP2 POP POP JUMP JUMPDEST PUSH0 DUP2 SWAP1 POP SWAP2 SWAP1 POP JUMP JUMPDEST PUSH2 0x55E DUP2 PUSH2 0x54C JUMP JUMPDEST DUP3 MSTORE POP POP JUMP JUMPDEST PUSH0 PUSH1 0x20 DUP3 ADD SWAP1 POP PUSH2 0x577 PUSH0 DUP4 ADD DUP5 PUSH2 0x555 JUMP JUMPDEST SWAP3 SWAP2 POP POP JUMP JUMPDEST PUSH0 DUP3 DUP3 MSTORE PUSH1 0x20 DUP3 ADD SWAP1 POP SWAP3 SWAP2 POP POP JUMP JUMPDEST PUSH32 0x4F6E6C79206F776E65722063616E20646F207468617421000000000000000000 PUSH0 DUP3 ADD MSTORE POP JUMP JUMPDEST PUSH0 PUSH2 0x5C1 PUSH1 0x17 DUP4 PUSH2 0x57D JUMP JUMPDEST SWAP2 POP PUSH2 0x5CC DUP3 PUSH2 0x58D JUMP JUMPDEST PUSH1 0x20 DUP3 ADD SWAP1 POP SWAP2 SWAP1 POP JUMP JUMPDEST PUSH0 PUSH1 0x20 DUP3 ADD SWAP1 POP DUP2 DUP2 SUB PUSH0 DUP4 ADD MSTORE PUSH2 0x5EE DUP2 PUSH2 0x5B5 JUMP JUMPDEST SWAP1 POP SWAP2 SWAP1 POP JUMP JUMPDEST PUSH32 0x546865206E756D62657273206F66207061727469636970616E7473206D757374 PUSH0 DUP3 ADD MSTORE PUSH32 0x206265206C6172676572207468616E2032000000000000000000000000000000 PUSH1 0x20 DUP3 ADD MSTORE POP JUMP JUMPDEST PUSH0 PUSH2 0x64F PUSH1 0x31 DUP4 PUSH2 0x57D JUMP JUMPDEST SWAP2 POP PUSH2 0x65A DUP3 PUSH2 0x5F5 JUMP JUMPDEST PUSH1 0x40 DUP3 ADD SWAP1 POP SWAP2 SWAP1 POP JUMP JUMPDEST PUSH0 PUSH1 0x20 DUP3 ADD SWAP1 POP DUP2 DUP2 SUB PUSH0 DUP4 ADD MSTORE PUSH2 0x67C DUP2 PUSH2 0x643 JUMP JUMPDEST SWAP1 POP SWAP2 SWAP1 POP JUMP JUMPDEST PUSH32 0x4E487B7100000000000000000000000000000000000000000000000000000000 PUSH0 MSTORE PUSH1 0x32 PUSH1 0x4 MSTORE PUSH1 0x24 PUSH0 REVERT JUMPDEST PUSH32 0x4F776E65722063616E2774207061727469636970617465000000000000000000 PUSH0 DUP3 ADD MSTORE POP JUMP JUMPDEST PUSH0 PUSH2 0x6E4 PUSH1 0x17 DUP4 PUSH2 0x57D JUMP JUMPDEST SWAP2 POP PUSH2 0x6EF DUP3 PUSH2 0x6B0 JUMP JUMPDEST PUSH1 0x20 DUP3 ADD SWAP1 POP SWAP2 SWAP1 POP JUMP JUMPDEST PUSH0 PUSH1 0x20 DUP3 ADD SWAP1 POP DUP2 DUP2 SUB PUSH0 DUP4 ADD MSTORE PUSH2 0x711 DUP2 PUSH2 0x6D8 JUMP JUMPDEST SWAP1 POP SWAP2 SWAP1 POP JUMP JUMPDEST PUSH32 0x5072696365206D75737420626520657175616C20746F20746865207072696365 PUSH0 DUP3 ADD MSTORE PUSH32 0x20646566696E656420627920746865206F776E6572206F6620746865206C6F74 PUSH1 0x20 DUP3 ADD MSTORE PUSH32 0x7465727900000000000000000000000000000000000000000000000000000000 PUSH1 0x40 DUP3 ADD MSTORE POP JUMP JUMPDEST PUSH0 PUSH2 0x798 PUSH1 0x44 DUP4 PUSH2 0x57D JUMP JUMPDEST SWAP2 POP PUSH2 0x7A3 DUP3 PUSH2 0x718 JUMP JUMPDEST PUSH1 0x60 DUP3 ADD SWAP1 POP SWAP2 SWAP1 POP JUMP JUMPDEST PUSH0 PUSH1 0x20 DUP3 ADD SWAP1 POP DUP2 DUP2 SUB PUSH0 DUP4 ADD MSTORE PUSH2 0x7C5 DUP2 PUSH2 0x78C JUMP JUMPDEST SWAP1 POP SWAP2 SWAP1 POP JUMP JUMPDEST PUSH32 0x41207061727469636970616E742063616E6E6F74207061727469636970617465 PUSH0 DUP3 ADD MSTORE PUSH32 0x207365766572616C2074696D6573000000000000000000000000000000000000 PUSH1 0x20 DUP3 ADD MSTORE POP JUMP JUMPDEST PUSH0 PUSH2 0x826 PUSH1 0x2E DUP4 PUSH2 0x57D JUMP JUMPDEST SWAP2 POP PUSH2 0x831 DUP3 PUSH2 0x7CC JUMP JUMPDEST PUSH1 0x40 DUP3 ADD SWAP1 POP SWAP2 SWAP1 POP JUMP JUMPDEST PUSH0 PUSH1 0x20 DUP3 ADD SWAP1 POP DUP2 DUP2 SUB PUSH0 DUP4 ADD MSTORE PUSH2 0x853 DUP2 PUSH2 0x81A JUMP JUMPDEST SWAP1 POP SWAP2 SWAP1 POP JUMP JUMPDEST PUSH32 0x4E487B7100000000000000000000000000000000000000000000000000000000 PUSH0 MSTORE PUSH1 0x11 PUSH1 0x4 MSTORE PUSH1 0x24 PUSH0 REVERT JUMPDEST PUSH0 PUSH2 0x891 DUP3 PUSH2 0x54C JUMP JUMPDEST SWAP2 POP PUSH32 0xFFFFFFFFFFFFFFFFFFFFFFFFFFFFFFFFFFFFFFFFFFFFFFFFFFFFFFFFFFFFFFFF DUP3 SUB PUSH2 0x8C3 JUMPI PUSH2 0x8C2 PUSH2 0x85A JUMP JUMPDEST JUMPDEST PUSH1 0x1 DUP3 ADD SWAP1 POP SWAP2 SWAP1 POP JUMP JUMPDEST PUSH0 DUP2 SWAP1 POP SWAP2 SWAP1 POP JUMP JUMPDEST PUSH2 0x8E8 PUSH2 0x8E3 DUP3 PUSH2 0x54C JUMP JUMPDEST PUSH2 0x8CE JUMP JUMPDEST DUP3 MSTORE POP POP JUMP JUMPDEST PUSH0 DUP2 PUSH1 0x60 SHL SWAP1 POP SWAP2 SWAP1 POP JUMP JUMPDEST PUSH0 PUSH2 0x904 DUP3 PUSH2 0x8EE JUMP JUMPDEST SWAP1 POP SWAP2 SWAP1 POP JUMP JUMPDEST PUSH0 PUSH2 0x915 DUP3 PUSH2 0x8FA JUMP JUMPDEST SWAP1 POP SWAP2 SWAP1 POP JUMP JUMPDEST PUSH2 0x92D PUSH2 0x928 DUP3 PUSH2 0x513 JUMP JUMPDEST PUSH2 0x90B JUMP JUMPDEST DUP3 MSTORE POP POP JUMP JUMPDEST PUSH0 PUSH2 0x93E DUP3 DUP7 PUSH2 0x8D7 JUMP JUMPDEST PUSH1 0x20 DUP3 ADD SWAP2 POP PUSH2 0x94E DUP3 DUP6 PUSH2 0x91C JUMP JUMPDEST PUSH1 0x14 DUP3 ADD SWAP2 POP PUSH2 0x95E DUP3 DUP5 PUSH2 0x8D7 JUMP JUMPDEST PUSH1 0x20 DUP3 ADD SWAP2 POP DUP2 SWAP1 POP SWAP5 SWAP4 POP POP POP POP JUMP JUMPDEST PUSH32 0x4E487B7100000000000000000000000000000000000000000000000000000000 PUSH0 MSTORE PUSH1 0x12 PUSH1 0x4 MSTORE PUSH1 0x24 PUSH0 REVERT JUMPDEST PUSH0 PUSH2 0x9A6 DUP3 PUSH2 0x54C JUMP JUMPDEST SWAP2 POP PUSH2 0x9B1 DUP4 PUSH2 0x54C JUMP JUMPDEST SWAP3 POP DUP3 PUSH2 0x9C1 JUMPI PUSH2 0x9C0 PUSH2 0x96F JUMP JUMPDEST JUMPDEST DUP3 DUP3 MOD SWAP1 POP SWAP3 SWAP2 POP POP JUMP INVALID LOG2 PUSH5 0x6970667358 0x22 SLT KECCAK256 PUSH5 0x51E2371CC7 BYTE 0xCE 0xB4 EXP PC EOFCREATE 0x64 PUSH27 0x9FB0F7F2B44080EAAEBE1FFA3268FEC90F8E64736F6C634300081E STOP CALLER "
	},
	"abi": [
		{
			"inputs": [
				{
					"internalType": "uint256",
					"name": "p",
					"type": "uint256"
				}
			],
			"stateMutability": "nonpayable",
			"type": "constructor"
		},
		{
			"inputs": [],
			"name": "getSolde",
			"outputs": [
				{
					"internalType": "uint256",
					"name": "",
					"type": "uint256"
				}
			],
			"stateMutability": "view",
			"type": "function"
		},
		{
			"inputs": [],
			"name": "participate",
			"outputs": [],
			"stateMutability": "payable",
			"type": "function"
		},
		{
			"inputs": [],
			"name": "price",
			"outputs": [
				{
					"internalType": "uint256",
					"name": "",
					"type": "uint256"
				}
			],
			"stateMutability": "view",
			"type": "function"
		},
		{
			"inputs": [],
			"name": "randomDraw",
			"outputs": [
				{
					"internalType": "address",
					"name": "",
					"type": "address"
				}
			],
			"stateMutability": "nonpayable",
			"type": "function"
		}
	],
	"storageLayout": {
		"storage": [
			{
				"astId": 4,
				"contract": "contracts/Loterie.sol:Loterie",
				"label": "randNonce",
				"offset": 0,
				"slot": "0",
				"type": "t_uint256"
			},
			{
				"astId": 6,
				"contract": "contracts/Loterie.sol:Loterie",
				"label": "price",
				"offset": 0,
				"slot": "1",
				"type": "t_uint256"
			},
			{
				"astId": 9,
				"contract": "contracts/Loterie.sol:Loterie",
				"label": "participants",
				"offset": 0,
				"slot": "2",
				"type": "t_array(t_address)dyn_storage"
			},
			{
				"astId": 11,
				"contract": "contracts/Loterie.sol:Loterie",
				"label": "owner",
				"offset": 0,
				"slot": "3",
				"type": "t_address"
			}
		],
		"types": {
			"t_address": {
				"encoding": "inplace",
				"label": "address",
				"numberOfBytes": "20"
			},
			"t_array(t_address)dyn_storage": {
				"base": "t_address",
				"encoding": "dynamic_array",
				"label": "address[]",
				"numberOfBytes": "32"
			},
			"t_uint256": {
				"encoding": "inplace",
				"label": "uint256",
				"numberOfBytes": "32"
			}
		}
	},
	"web3Deploy": "var p = /* var of type uint256 here */ ;\nvar loterieContract = new web3.eth.Contract([{\"inputs\":[{\"internalType\":\"uint256\",\"name\":\"p\",\"type\":\"uint256\"}],\"stateMutability\":\"nonpayable\",\"type\":\"constructor\"},{\"inputs\":[],\"name\":\"getSolde\",\"outputs\":[{\"internalType\":\"uint256\",\"name\":\"\",\"type\":\"uint256\"}],\"stateMutability\":\"view\",\"type\":\"function\"},{\"inputs\":[],\"name\":\"participate\",\"outputs\":[],\"stateMutability\":\"payable\",\"type\":\"function\"},{\"inputs\":[],\"name\":\"price\",\"outputs\":[{\"internalType\":\"uint256\",\"name\":\"\",\"type\":\"uint256\"}],\"stateMutability\":\"view\",\"type\":\"function\"},{\"inputs\":[],\"name\":\"randomDraw\",\"outputs\":[{\"internalType\":\"address\",\"name\":\"\",\"type\":\"address\"}],\"stateMutability\":\"nonpayable\",\"type\":\"function\"}]);\nvar loterie = loterieContract.deploy({\n     data: '0x608060405234801561000f575f5ffd5b50604051610b6f380380610b6f833981810160405281019061003191906100c7565b3360035f6101000a81548173ffffffffffffffffffffffffffffffffffffffff021916908373ffffffffffffffffffffffffffffffffffffffff160217905550662386f26fc1000081610084919061011f565b60018190555050610160565b5f5ffd5b5f819050919050565b6100a681610094565b81146100b0575f5ffd5b50565b5f815190506100c18161009d565b92915050565b5f602082840312156100dc576100db610090565b5b5f6100e9848285016100b3565b91505092915050565b7f4e487b71000000000000000000000000000000000000000000000000000000005f52601160045260245ffd5b5f61012982610094565b915061013483610094565b925082820261014281610094565b91508282048414831517610159576101586100f2565b5b5092915050565b610a028061016d5f395ff3fe60806040526004361061003e575f3560e01c80631e62e2021461004257806355e5ae041461006c578063a035b1fe14610096578063d11711a2146100c0575b5f5ffd5b34801561004d575f5ffd5b506100566100ca565b6040516100639190610533565b60405180910390f35b348015610077575f5ffd5b50610080610245565b60405161008d9190610564565b60405180910390f35b3480156100a1575f5ffd5b506100aa61024c565b6040516100b79190610564565b60405180910390f35b6100c8610252565b005b5f60035f9054906101000a900473ffffffffffffffffffffffffffffffffffffffff1673ffffffffffffffffffffffffffffffffffffffff163373ffffffffffffffffffffffffffffffffffffffff161461015a576040517f08c379a0000000000000000000000000000000000000000000000000000000008152600401610151906105d7565b60405180910390fd5b60028080549050116101a1576040517f08c379a000000000000000000000000000000000000000000000000000000000815260040161019890610665565b60405180910390fd5b5f60026101b2600280549050610464565b815481106101c3576101c2610683565b5b905f5260205f20015f9054906101000a900473ffffffffffffffffffffffffffffffffffffffff1690508073ffffffffffffffffffffffffffffffffffffffff166108fc4790811502906040515f60405180830381858888f19350505050158015610230573d5f5f3e3d5ffd5b5060025f61023e91906104bb565b8091505090565b5f47905090565b60015481565b60035f9054906101000a900473ffffffffffffffffffffffffffffffffffffffff1673ffffffffffffffffffffffffffffffffffffffff163373ffffffffffffffffffffffffffffffffffffffff16036102e1576040517f08c379a00000000000000000000000000000000000000000000000000000000081526004016102d8906106fa565b60405180910390fd5b6001543414610325576040517f08c379a000000000000000000000000000000000000000000000000000000000815260040161031c906107ae565b60405180910390fd5b5f5f90505f5f90505b6002805490508110156103bf573373ffffffffffffffffffffffffffffffffffffffff166002828154811061036657610365610683565b5b905f5260205f20015f9054906101000a900473ffffffffffffffffffffffffffffffffffffffff1673ffffffffffffffffffffffffffffffffffffffff16036103b257600191506103bf565b808060010191505061032e565b508015610401576040517f08c379a00000000000000000000000000000000000000000000000000000000081526004016103f89061083c565b60405180910390fd5b600233908060018154018082558091505060019003905f5260205f20015f9091909190916101000a81548173ffffffffffffffffffffffffffffffffffffffff021916908373ffffffffffffffffffffffffffffffffffffffff16021790555050565b5f5f5f81548092919061047690610887565b91905055508142335f5460405160200161049293929190610933565b604051602081830303815290604052805190602001205f1c6104b4919061099c565b9050919050565b5080545f8255905f5260205f20908101906104d691906104d9565b50565b5b808211156104f0575f815f9055506001016104da565b5090565b5f73ffffffffffffffffffffffffffffffffffffffff82169050919050565b5f61051d826104f4565b9050919050565b61052d81610513565b82525050565b5f6020820190506105465f830184610524565b92915050565b5f819050919050565b61055e8161054c565b82525050565b5f6020820190506105775f830184610555565b92915050565b5f82825260208201905092915050565b7f4f6e6c79206f776e65722063616e20646f2074686174210000000000000000005f82015250565b5f6105c160178361057d565b91506105cc8261058d565b602082019050919050565b5f6020820190508181035f8301526105ee816105b5565b9050919050565b7f546865206e756d62657273206f66207061727469636970616e7473206d7573745f8201527f206265206c6172676572207468616e2032000000000000000000000000000000602082015250565b5f61064f60318361057d565b915061065a826105f5565b604082019050919050565b5f6020820190508181035f83015261067c81610643565b9050919050565b7f4e487b71000000000000000000000000000000000000000000000000000000005f52603260045260245ffd5b7f4f776e65722063616e27742070617274696369706174650000000000000000005f82015250565b5f6106e460178361057d565b91506106ef826106b0565b602082019050919050565b5f6020820190508181035f830152610711816106d8565b9050919050565b7f5072696365206d75737420626520657175616c20746f207468652070726963655f8201527f20646566696e656420627920746865206f776e6572206f6620746865206c6f7460208201527f7465727900000000000000000000000000000000000000000000000000000000604082015250565b5f61079860448361057d565b91506107a382610718565b606082019050919050565b5f6020820190508181035f8301526107c58161078c565b9050919050565b7f41207061727469636970616e742063616e6e6f742070617274696369706174655f8201527f207365766572616c2074696d6573000000000000000000000000000000000000602082015250565b5f610826602e8361057d565b9150610831826107cc565b604082019050919050565b5f6020820190508181035f8301526108538161081a565b9050919050565b7f4e487b71000000000000000000000000000000000000000000000000000000005f52601160045260245ffd5b5f6108918261054c565b91507fffffffffffffffffffffffffffffffffffffffffffffffffffffffffffffffff82036108c3576108c261085a565b5b600182019050919050565b5f819050919050565b6108e86108e38261054c565b6108ce565b82525050565b5f8160601b9050919050565b5f610904826108ee565b9050919050565b5f610915826108fa565b9050919050565b61092d61092882610513565b61090b565b82525050565b5f61093e82866108d7565b60208201915061094e828561091c565b60148201915061095e82846108d7565b602082019150819050949350505050565b7f4e487b71000000000000000000000000000000000000000000000000000000005f52601260045260245ffd5b5f6109a68261054c565b91506109b18361054c565b9250826109c1576109c061096f565b5b82820690509291505056fea26469706673582212206451e2371cc71aceb40a58ec647a9fb0f7f2b44080eaaebe1ffa3268fec90f8e64736f6c634300081e0033', \n     arguments: [\n          p,\n     ]\n}).send({\n     from: web3.eth.accounts[0], \n     gas: '4700000'\n   }, function (e, contract){\n    console.log(e, contract);\n    if (typeof contract.address !== 'undefined') {\n         console.log('Contract mined! address: ' + contract.address + ' transactionHash: ' + contract.transactionHash);\n    }\n })",
	"functionHashes": {
		"55e5ae04": "getSolde()",
		"d11711a2": "participate()",
		"a035b1fe": "price()",
		"1e62e202": "randomDraw()"
	},
	"gasEstimates": {
		"Creation": {
			"codeDepositCost": "512400",
			"executionCost": "infinite",
			"totalCost": "infinite"
		},
		"External": {
			"getSolde()": "334",
			"participate()": "infinite",
			"price()": "2447",
			"randomDraw()": "infinite"
		},
		"Internal": {
			"random(uint256)": "infinite"
		}
	},
	"devdoc": {
		"details": "Store & retrieve value in a variable",
		"kind": "dev",
		"methods": {},
		"title": "Loterie",
		"version": 1
	},
	"userdoc": {
		"kind": "user",
		"methods": {},
		"version": 1
	},
	"Runtime Bytecode": {
		"immutableReferences": {},
		"linkReferences": {},
		"object": "60806040526004361061003e575f3560e01c80631e62e2021461004257806355e5ae041461006c578063a035b1fe14610096578063d11711a2146100c0575b5f5ffd5b34801561004d575f5ffd5b506100566100ca565b6040516100639190610533565b60405180910390f35b348015610077575f5ffd5b50610080610245565b60405161008d9190610564565b60405180910390f35b3480156100a1575f5ffd5b506100aa61024c565b6040516100b79190610564565b60405180910390f35b6100c8610252565b005b5f60035f9054906101000a900473ffffffffffffffffffffffffffffffffffffffff1673ffffffffffffffffffffffffffffffffffffffff163373ffffffffffffffffffffffffffffffffffffffff161461015a576040517f08c379a0000000000000000000000000000000000000000000000000000000008152600401610151906105d7565b60405180910390fd5b60028080549050116101a1576040517f08c379a000000000000000000000000000000000000000000000000000000000815260040161019890610665565b60405180910390fd5b5f60026101b2600280549050610464565b815481106101c3576101c2610683565b5b905f5260205f20015f9054906101000a900473ffffffffffffffffffffffffffffffffffffffff1690508073ffffffffffffffffffffffffffffffffffffffff166108fc4790811502906040515f60405180830381858888f19350505050158015610230573d5f5f3e3d5ffd5b5060025f61023e91906104bb565b8091505090565b5f47905090565b60015481565b60035f9054906101000a900473ffffffffffffffffffffffffffffffffffffffff1673ffffffffffffffffffffffffffffffffffffffff163373ffffffffffffffffffffffffffffffffffffffff16036102e1576040517f08c379a00000000000000000000000000000000000000000000000000000000081526004016102d8906106fa565b60405180910390fd5b6001543414610325576040517f08c379a000000000000000000000000000000000000000000000000000000000815260040161031c906107ae565b60405180910390fd5b5f5f90505f5f90505b6002805490508110156103bf573373ffffffffffffffffffffffffffffffffffffffff166002828154811061036657610365610683565b5b905f5260205f20015f9054906101000a900473ffffffffffffffffffffffffffffffffffffffff1673ffffffffffffffffffffffffffffffffffffffff16036103b257600191506103bf565b808060010191505061032e565b508015610401576040517f08c379a00000000000000000000000000000000000000000000000000000000081526004016103f89061083c565b60405180910390fd5b600233908060018154018082558091505060019003905f5260205f20015f9091909190916101000a81548173ffffffffffffffffffffffffffffffffffffffff021916908373ffffffffffffffffffffffffffffffffffffffff16021790555050565b5f5f5f81548092919061047690610887565b91905055508142335f5460405160200161049293929190610933565b604051602081830303815290604052805190602001205f1c6104b4919061099c565b9050919050565b5080545f8255905f5260205f20908101906104d691906104d9565b50565b5b808211156104f0575f815f9055506001016104da565b5090565b5f73ffffffffffffffffffffffffffffffffffffffff82169050919050565b5f61051d826104f4565b9050919050565b61052d81610513565b82525050565b5f6020820190506105465f830184610524565b92915050565b5f819050919050565b61055e8161054c565b82525050565b5f6020820190506105775f830184610555565b92915050565b5f82825260208201905092915050565b7f4f6e6c79206f776e65722063616e20646f2074686174210000000000000000005f82015250565b5f6105c160178361057d565b91506105cc8261058d565b602082019050919050565b5f6020820190508181035f8301526105ee816105b5565b9050919050565b7f546865206e756d62657273206f66207061727469636970616e7473206d7573745f8201527f206265206c6172676572207468616e2032000000000000000000000000000000602082015250565b5f61064f60318361057d565b915061065a826105f5565b604082019050919050565b5f6020820190508181035f83015261067c81610643565b9050919050565b7f4e487b71000000000000000000000000000000000000000000000000000000005f52603260045260245ffd5b7f4f776e65722063616e27742070617274696369706174650000000000000000005f82015250565b5f6106e460178361057d565b91506106ef826106b0565b602082019050919050565b5f6020820190508181035f830152610711816106d8565b9050919050565b7f5072696365206d75737420626520657175616c20746f207468652070726963655f8201527f20646566696e656420627920746865206f776e6572206f6620746865206c6f7460208201527f7465727900000000000000000000000000000000000000000000000000000000604082015250565b5f61079860448361057d565b91506107a382610718565b606082019050919050565b5f6020820190508181035f8301526107c58161078c565b9050919050565b7f41207061727469636970616e742063616e6e6f742070617274696369706174655f8201527f207365766572616c2074696d6573000000000000000000000000000000000000602082015250565b5f610826602e8361057d565b9150610831826107cc565b604082019050919050565b5f6020820190508181035f8301526108538161081a565b9050919050565b7f4e487b71000000000000000000000000000000000000000000000000000000005f52601160045260245ffd5b5f6108918261054c565b91507fffffffffffffffffffffffffffffffffffffffffffffffffffffffffffffffff82036108c3576108c261085a565b5b600182019050919050565b5f819050919050565b6108e86108e38261054c565b6108ce565b82525050565b5f8160601b9050919050565b5f610904826108ee565b9050919050565b5f610915826108fa565b9050919050565b61092d61092882610513565b61090b565b82525050565b5f61093e82866108d7565b60208201915061094e828561091c565b60148201915061095e82846108d7565b602082019150819050949350505050565b7f4e487b71000000000000000000000000000000000000000000000000000000005f52601260045260245ffd5b5f6109a68261054c565b91506109b18361054c565b9250826109c1576109c061096f565b5b82820690509291505056fea26469706673582212206451e2371cc71aceb40a58ec647a9fb0f7f2b44080eaaebe1ffa3268fec90f8e64736f6c634300081e0033",
		"opcodes": "PUSH1 0x80 PUSH1 0x40 MSTORE PUSH1 0x4 CALLDATASIZE LT PUSH2 0x3E JUMPI PUSH0 CALLDATALOAD PUSH1 0xE0 SHR DUP1 PUSH4 0x1E62E202 EQ PUSH2 0x42 JUMPI DUP1 PUSH4 0x55E5AE04 EQ PUSH2 0x6C JUMPI DUP1 PUSH4 0xA035B1FE EQ PUSH2 0x96 JUMPI DUP1 PUSH4 0xD11711A2 EQ PUSH2 0xC0 JUMPI JUMPDEST PUSH0 PUSH0 REVERT JUMPDEST CALLVALUE DUP1 ISZERO PUSH2 0x4D JUMPI PUSH0 PUSH0 REVERT JUMPDEST POP PUSH2 0x56 PUSH2 0xCA JUMP JUMPDEST PUSH1 0x40 MLOAD PUSH2 0x63 SWAP2 SWAP1 PUSH2 0x533 JUMP JUMPDEST PUSH1 0x40 MLOAD DUP1 SWAP2 SUB SWAP1 RETURN JUMPDEST CALLVALUE DUP1 ISZERO PUSH2 0x77 JUMPI PUSH0 PUSH0 REVERT JUMPDEST POP PUSH2 0x80 PUSH2 0x245 JUMP JUMPDEST PUSH1 0x40 MLOAD PUSH2 0x8D SWAP2 SWAP1 PUSH2 0x564 JUMP JUMPDEST PUSH1 0x40 MLOAD DUP1 SWAP2 SUB SWAP1 RETURN JUMPDEST CALLVALUE DUP1 ISZERO PUSH2 0xA1 JUMPI PUSH0 PUSH0 REVERT JUMPDEST POP PUSH2 0xAA PUSH2 0x24C JUMP JUMPDEST PUSH1 0x40 MLOAD PUSH2 0xB7 SWAP2 SWAP1 PUSH2 0x564 JUMP JUMPDEST PUSH1 0x40 MLOAD DUP1 SWAP2 SUB SWAP1 RETURN JUMPDEST PUSH2 0xC8 PUSH2 0x252 JUMP JUMPDEST STOP JUMPDEST PUSH0 PUSH1 0x3 PUSH0 SWAP1 SLOAD SWAP1 PUSH2 0x100 EXP SWAP1 DIV PUSH20 0xFFFFFFFFFFFFFFFFFFFFFFFFFFFFFFFFFFFFFFFF AND PUSH20 0xFFFFFFFFFFFFFFFFFFFFFFFFFFFFFFFFFFFFFFFF AND CALLER PUSH20 0xFFFFFFFFFFFFFFFFFFFFFFFFFFFFFFFFFFFFFFFF AND EQ PUSH2 0x15A JUMPI PUSH1 0x40 MLOAD PUSH32 0x8C379A000000000000000000000000000000000000000000000000000000000 DUP2 MSTORE PUSH1 0x4 ADD PUSH2 0x151 SWAP1 PUSH2 0x5D7 JUMP JUMPDEST PUSH1 0x40 MLOAD DUP1 SWAP2 SUB SWAP1 REVERT JUMPDEST PUSH1 0x2 DUP1 DUP1 SLOAD SWAP1 POP GT PUSH2 0x1A1 JUMPI PUSH1 0x40 MLOAD PUSH32 0x8C379A000000000000000000000000000000000000000000000000000000000 DUP2 MSTORE PUSH1 0x4 ADD PUSH2 0x198 SWAP1 PUSH2 0x665 JUMP JUMPDEST PUSH1 0x40 MLOAD DUP1 SWAP2 SUB SWAP1 REVERT JUMPDEST PUSH0 PUSH1 0x2 PUSH2 0x1B2 PUSH1 0x2 DUP1 SLOAD SWAP1 POP PUSH2 0x464 JUMP JUMPDEST DUP2 SLOAD DUP2 LT PUSH2 0x1C3 JUMPI PUSH2 0x1C2 PUSH2 0x683 JUMP JUMPDEST JUMPDEST SWAP1 PUSH0 MSTORE PUSH1 0x20 PUSH0 KECCAK256 ADD PUSH0 SWAP1 SLOAD SWAP1 PUSH2 0x100 EXP SWAP1 DIV PUSH20 0xFFFFFFFFFFFFFFFFFFFFFFFFFFFFFFFFFFFFFFFF AND SWAP1 POP DUP1 PUSH20 0xFFFFFFFFFFFFFFFFFFFFFFFFFFFFFFFFFFFFFFFF AND PUSH2 0x8FC SELFBALANCE SWAP1 DUP2 ISZERO MUL SWAP1 PUSH1 0x40 MLOAD PUSH0 PUSH1 0x40 MLOAD DUP1 DUP4 SUB DUP2 DUP6 DUP9 DUP9 CALL SWAP4 POP POP POP POP ISZERO DUP1 ISZERO PUSH2 0x230 JUMPI RETURNDATASIZE PUSH0 PUSH0 RETURNDATACOPY RETURNDATASIZE PUSH0 REVERT JUMPDEST POP PUSH1 0x2 PUSH0 PUSH2 0x23E SWAP2 SWAP1 PUSH2 0x4BB JUMP JUMPDEST DUP1 SWAP2 POP POP SWAP1 JUMP JUMPDEST PUSH0 SELFBALANCE SWAP1 POP SWAP1 JUMP JUMPDEST PUSH1 0x1 SLOAD DUP2 JUMP JUMPDEST PUSH1 0x3 PUSH0 SWAP1 SLOAD SWAP1 PUSH2 0x100 EXP SWAP1 DIV PUSH20 0xFFFFFFFFFFFFFFFFFFFFFFFFFFFFFFFFFFFFFFFF AND PUSH20 0xFFFFFFFFFFFFFFFFFFFFFFFFFFFFFFFFFFFFFFFF AND CALLER PUSH20 0xFFFFFFFFFFFFFFFFFFFFFFFFFFFFFFFFFFFFFFFF AND SUB PUSH2 0x2E1 JUMPI PUSH1 0x40 MLOAD PUSH32 0x8C379A000000000000000000000000000000000000000000000000000000000 DUP2 MSTORE PUSH1 0x4 ADD PUSH2 0x2D8 SWAP1 PUSH2 0x6FA JUMP JUMPDEST PUSH1 0x40 MLOAD DUP1 SWAP2 SUB SWAP1 REVERT JUMPDEST PUSH1 0x1 SLOAD CALLVALUE EQ PUSH2 0x325 JUMPI PUSH1 0x40 MLOAD PUSH32 0x8C379A000000000000000000000000000000000000000000000000000000000 DUP2 MSTORE PUSH1 0x4 ADD PUSH2 0x31C SWAP1 PUSH2 0x7AE JUMP JUMPDEST PUSH1 0x40 MLOAD DUP1 SWAP2 SUB SWAP1 REVERT JUMPDEST PUSH0 PUSH0 SWAP1 POP PUSH0 PUSH0 SWAP1 POP JUMPDEST PUSH1 0x2 DUP1 SLOAD SWAP1 POP DUP2 LT ISZERO PUSH2 0x3BF JUMPI CALLER PUSH20 0xFFFFFFFFFFFFFFFFFFFFFFFFFFFFFFFFFFFFFFFF AND PUSH1 0x2 DUP3 DUP2 SLOAD DUP2 LT PUSH2 0x366 JUMPI PUSH2 0x365 PUSH2 0x683 JUMP JUMPDEST JUMPDEST SWAP1 PUSH0 MSTORE PUSH1 0x20 PUSH0 KECCAK256 ADD PUSH0 SWAP1 SLOAD SWAP1 PUSH2 0x100 EXP SWAP1 DIV PUSH20 0xFFFFFFFFFFFFFFFFFFFFFFFFFFFFFFFFFFFFFFFF AND PUSH20 0xFFFFFFFFFFFFFFFFFFFFFFFFFFFFFFFFFFFFFFFF AND SUB PUSH2 0x3B2 JUMPI PUSH1 0x1 SWAP2 POP PUSH2 0x3BF JUMP JUMPDEST DUP1 DUP1 PUSH1 0x1 ADD SWAP2 POP POP PUSH2 0x32E JUMP JUMPDEST POP DUP1 ISZERO PUSH2 0x401 JUMPI PUSH1 0x40 MLOAD PUSH32 0x8C379A000000000000000000000000000000000000000000000000000000000 DUP2 MSTORE PUSH1 0x4 ADD PUSH2 0x3F8 SWAP1 PUSH2 0x83C JUMP JUMPDEST PUSH1 0x40 MLOAD DUP1 SWAP2 SUB SWAP1 REVERT JUMPDEST PUSH1 0x2 CALLER SWAP1 DUP1 PUSH1 0x1 DUP2 SLOAD ADD DUP1 DUP3 SSTORE DUP1 SWAP2 POP POP PUSH1 0x1 SWAP1 SUB SWAP1 PUSH0 MSTORE PUSH1 0x20 PUSH0 KECCAK256 ADD PUSH0 SWAP1 SWAP2 SWAP1 SWAP2 SWAP1 SWAP2 PUSH2 0x100 EXP DUP2 SLOAD DUP2 PUSH20 0xFFFFFFFFFFFFFFFFFFFFFFFFFFFFFFFFFFFFFFFF MUL NOT AND SWAP1 DUP4 PUSH20 0xFFFFFFFFFFFFFFFFFFFFFFFFFFFFFFFFFFFFFFFF AND MUL OR SWAP1 SSTORE POP POP JUMP JUMPDEST PUSH0 PUSH0 PUSH0 DUP2 SLOAD DUP1 SWAP3 SWAP2 SWAP1 PUSH2 0x476 SWAP1 PUSH2 0x887 JUMP JUMPDEST SWAP2 SWAP1 POP SSTORE POP DUP2 TIMESTAMP CALLER PUSH0 SLOAD PUSH1 0x40 MLOAD PUSH1 0x20 ADD PUSH2 0x492 SWAP4 SWAP3 SWAP2 SWAP1 PUSH2 0x933 JUMP JUMPDEST PUSH1 0x40 MLOAD PUSH1 0x20 DUP2 DUP4 SUB SUB DUP2 MSTORE SWAP1 PUSH1 0x40 MSTORE DUP1 MLOAD SWAP1 PUSH1 0x20 ADD KECCAK256 PUSH0 SHR PUSH2 0x4B4 SWAP2 SWAP1 PUSH2 0x99C JUMP JUMPDEST SWAP1 POP SWAP2 SWAP1 POP JUMP JUMPDEST POP DUP1 SLOAD PUSH0 DUP3 SSTORE SWAP1 PUSH0 MSTORE PUSH1 0x20 PUSH0 KECCAK256 SWAP1 DUP2 ADD SWAP1 PUSH2 0x4D6 SWAP2 SWAP1 PUSH2 0x4D9 JUMP JUMPDEST POP JUMP JUMPDEST JUMPDEST DUP1 DUP3 GT ISZERO PUSH2 0x4F0 JUMPI PUSH0 DUP2 PUSH0 SWAP1 SSTORE POP PUSH1 0x1 ADD PUSH2 0x4DA JUMP JUMPDEST POP SWAP1 JUMP JUMPDEST PUSH0 PUSH20 0xFFFFFFFFFFFFFFFFFFFFFFFFFFFFFFFFFFFFFFFF DUP3 AND SWAP1 POP SWAP2 SWAP1 POP JUMP JUMPDEST PUSH0 PUSH2 0x51D DUP3 PUSH2 0x4F4 JUMP JUMPDEST SWAP1 POP SWAP2 SWAP1 POP JUMP JUMPDEST PUSH2 0x52D DUP2 PUSH2 0x513 JUMP JUMPDEST DUP3 MSTORE POP POP JUMP JUMPDEST PUSH0 PUSH1 0x20 DUP3 ADD SWAP1 POP PUSH2 0x546 PUSH0 DUP4 ADD DUP5 PUSH2 0x524 JUMP JUMPDEST SWAP3 SWAP2 POP POP JUMP JUMPDEST PUSH0 DUP2 SWAP1 POP SWAP2 SWAP1 POP JUMP JUMPDEST PUSH2 0x55E DUP2 PUSH2 0x54C JUMP JUMPDEST DUP3 MSTORE POP POP JUMP JUMPDEST PUSH0 PUSH1 0x20 DUP3 ADD SWAP1 POP PUSH2 0x577 PUSH0 DUP4 ADD DUP5 PUSH2 0x555 JUMP JUMPDEST SWAP3 SWAP2 POP POP JUMP JUMPDEST PUSH0 DUP3 DUP3 MSTORE PUSH1 0x20 DUP3 ADD SWAP1 POP SWAP3 SWAP2 POP POP JUMP JUMPDEST PUSH32 0x4F6E6C79206F776E65722063616E20646F207468617421000000000000000000 PUSH0 DUP3 ADD MSTORE POP JUMP JUMPDEST PUSH0 PUSH2 0x5C1 PUSH1 0x17 DUP4 PUSH2 0x57D JUMP JUMPDEST SWAP2 POP PUSH2 0x5CC DUP3 PUSH2 0x58D JUMP JUMPDEST PUSH1 0x20 DUP3 ADD SWAP1 POP SWAP2 SWAP1 POP JUMP JUMPDEST PUSH0 PUSH1 0x20 DUP3 ADD SWAP1 POP DUP2 DUP2 SUB PUSH0 DUP4 ADD MSTORE PUSH2 0x5EE DUP2 PUSH2 0x5B5 JUMP JUMPDEST SWAP1 POP SWAP2 SWAP1 POP JUMP JUMPDEST PUSH32 0x546865206E756D62657273206F66207061727469636970616E7473206D757374 PUSH0 DUP3 ADD MSTORE PUSH32 0x206265206C6172676572207468616E2032000000000000000000000000000000 PUSH1 0x20 DUP3 ADD MSTORE POP JUMP JUMPDEST PUSH0 PUSH2 0x64F PUSH1 0x31 DUP4 PUSH2 0x57D JUMP JUMPDEST SWAP2 POP PUSH2 0x65A DUP3 PUSH2 0x5F5 JUMP JUMPDEST PUSH1 0x40 DUP3 ADD SWAP1 POP SWAP2 SWAP1 POP JUMP JUMPDEST PUSH0 PUSH1 0x20 DUP3 ADD SWAP1 POP DUP2 DUP2 SUB PUSH0 DUP4 ADD MSTORE PUSH2 0x67C DUP2 PUSH2 0x643 JUMP JUMPDEST SWAP1 POP SWAP2 SWAP1 POP JUMP JUMPDEST PUSH32 0x4E487B7100000000000000000000000000000000000000000000000000000000 PUSH0 MSTORE PUSH1 0x32 PUSH1 0x4 MSTORE PUSH1 0x24 PUSH0 REVERT JUMPDEST PUSH32 0x4F776E65722063616E2774207061727469636970617465000000000000000000 PUSH0 DUP3 ADD MSTORE POP JUMP JUMPDEST PUSH0 PUSH2 0x6E4 PUSH1 0x17 DUP4 PUSH2 0x57D JUMP JUMPDEST SWAP2 POP PUSH2 0x6EF DUP3 PUSH2 0x6B0 JUMP JUMPDEST PUSH1 0x20 DUP3 ADD SWAP1 POP SWAP2 SWAP1 POP JUMP JUMPDEST PUSH0 PUSH1 0x20 DUP3 ADD SWAP1 POP DUP2 DUP2 SUB PUSH0 DUP4 ADD MSTORE PUSH2 0x711 DUP2 PUSH2 0x6D8 JUMP JUMPDEST SWAP1 POP SWAP2 SWAP1 POP JUMP JUMPDEST PUSH32 0x5072696365206D75737420626520657175616C20746F20746865207072696365 PUSH0 DUP3 ADD MSTORE PUSH32 0x20646566696E656420627920746865206F776E6572206F6620746865206C6F74 PUSH1 0x20 DUP3 ADD MSTORE PUSH32 0x7465727900000000000000000000000000000000000000000000000000000000 PUSH1 0x40 DUP3 ADD MSTORE POP JUMP JUMPDEST PUSH0 PUSH2 0x798 PUSH1 0x44 DUP4 PUSH2 0x57D JUMP JUMPDEST SWAP2 POP PUSH2 0x7A3 DUP3 PUSH2 0x718 JUMP JUMPDEST PUSH1 0x60 DUP3 ADD SWAP1 POP SWAP2 SWAP1 POP JUMP JUMPDEST PUSH0 PUSH1 0x20 DUP3 ADD SWAP1 POP DUP2 DUP2 SUB PUSH0 DUP4 ADD MSTORE PUSH2 0x7C5 DUP2 PUSH2 0x78C JUMP JUMPDEST SWAP1 POP SWAP2 SWAP1 POP JUMP JUMPDEST PUSH32 0x41207061727469636970616E742063616E6E6F74207061727469636970617465 PUSH0 DUP3 ADD MSTORE PUSH32 0x207365766572616C2074696D6573000000000000000000000000000000000000 PUSH1 0x20 DUP3 ADD MSTORE POP JUMP JUMPDEST PUSH0 PUSH2 0x826 PUSH1 0x2E DUP4 PUSH2 0x57D JUMP JUMPDEST SWAP2 POP PUSH2 0x831 DUP3 PUSH2 0x7CC JUMP JUMPDEST PUSH1 0x40 DUP3 ADD SWAP1 POP SWAP2 SWAP1 POP JUMP JUMPDEST PUSH0 PUSH1 0x20 DUP3 ADD SWAP1 POP DUP2 DUP2 SUB PUSH0 DUP4 ADD MSTORE PUSH2 0x853 DUP2 PUSH2 0x81A JUMP JUMPDEST SWAP1 POP SWAP2 SWAP1 POP JUMP JUMPDEST PUSH32 0x4E487B7100000000000000000000000000000000000000000000000000000000 PUSH0 MSTORE PUSH1 0x11 PUSH1 0x4 MSTORE PUSH1 0x24 PUSH0 REVERT JUMPDEST PUSH0 PUSH2 0x891 DUP3 PUSH2 0x54C JUMP JUMPDEST SWAP2 POP PUSH32 0xFFFFFFFFFFFFFFFFFFFFFFFFFFFFFFFFFFFFFFFFFFFFFFFFFFFFFFFFFFFFFFFF DUP3 SUB PUSH2 0x8C3 JUMPI PUSH2 0x8C2 PUSH2 0x85A JUMP JUMPDEST JUMPDEST PUSH1 0x1 DUP3 ADD SWAP1 POP SWAP2 SWAP1 POP JUMP JUMPDEST PUSH0 DUP2 SWAP1 POP SWAP2 SWAP1 POP JUMP JUMPDEST PUSH2 0x8E8 PUSH2 0x8E3 DUP3 PUSH2 0x54C JUMP JUMPDEST PUSH2 0x8CE JUMP JUMPDEST DUP3 MSTORE POP POP JUMP JUMPDEST PUSH0 DUP2 PUSH1 0x60 SHL SWAP1 POP SWAP2 SWAP1 POP JUMP JUMPDEST PUSH0 PUSH2 0x904 DUP3 PUSH2 0x8EE JUMP JUMPDEST SWAP1 POP SWAP2 SWAP1 POP JUMP JUMPDEST PUSH0 PUSH2 0x915 DUP3 PUSH2 0x8FA JUMP JUMPDEST SWAP1 POP SWAP2 SWAP1 POP JUMP JUMPDEST PUSH2 0x92D PUSH2 0x928 DUP3 PUSH2 0x513 JUMP JUMPDEST PUSH2 0x90B JUMP JUMPDEST DUP3 MSTORE POP POP JUMP JUMPDEST PUSH0 PUSH2 0x93E DUP3 DUP7 PUSH2 0x8D7 JUMP JUMPDEST PUSH1 0x20 DUP3 ADD SWAP2 POP PUSH2 0x94E DUP3 DUP6 PUSH2 0x91C JUMP JUMPDEST PUSH1 0x14 DUP3 ADD SWAP2 POP PUSH2 0x95E DUP3 DUP5 PUSH2 0x8D7 JUMP JUMPDEST PUSH1 0x20 DUP3 ADD SWAP2 POP DUP2 SWAP1 POP SWAP5 SWAP4 POP POP POP POP JUMP JUMPDEST PUSH32 0x4E487B7100000000000000000000000000000000000000000000000000000000 PUSH0 MSTORE PUSH1 0x12 PUSH1 0x4 MSTORE PUSH1 0x24 PUSH0 REVERT JUMPDEST PUSH0 PUSH2 0x9A6 DUP3 PUSH2 0x54C JUMP JUMPDEST SWAP2 POP PUSH2 0x9B1 DUP4 PUSH2 0x54C JUMP JUMPDEST SWAP3 POP DUP3 PUSH2 0x9C1 JUMPI PUSH2 0x9C0 PUSH2 0x96F JUMP JUMPDEST JUMPDEST DUP3 DUP3 MOD SWAP1 POP SWAP3 SWAP2 POP POP JUMP INVALID LOG2 PUSH5 0x6970667358 0x22 SLT KECCAK256 PUSH5 0x51E2371CC7 BYTE 0xCE 0xB4 EXP PC EOFCREATE 0x64 PUSH27 0x9FB0F7F2B44080EAAEBE1FFA3268FEC90F8E64736F6C634300081E STOP CALLER "
	},
	"Assembly": ".code\n  PUSH 80\t\t\tcontract Loterie {\\n\\n    uint...\n  PUSH 40\t\t\tcontract Loterie {\\n\\n    uint...\n  MSTORE \t\t\tcontract Loterie {\\n\\n    uint...\n  CALLVALUE \t\t\tconstructor(uint256 p){\\n     ...\n  DUP1 \t\t\tconstructor(uint256 p){\\n     ...\n  ISZERO \t\t\tconstructor(uint256 p){\\n     ...\n  PUSH [tag] 1\t\t\tconstructor(uint256 p){\\n     ...\n  JUMPI \t\t\tconstructor(uint256 p){\\n     ...\n  PUSH 0\t\t\tconstructor(uint256 p){\\n     ...\n  PUSH 0\t\t\tconstructor(uint256 p){\\n     ...\n  REVERT \t\t\tconstructor(uint256 p){\\n     ...\ntag 1\t\t\tconstructor(uint256 p){\\n     ...\n  JUMPDEST \t\t\tconstructor(uint256 p){\\n     ...\n  POP \t\t\tconstructor(uint256 p){\\n     ...\n  PUSH 40\t\t\tconstructor(uint256 p){\\n     ...\n  MLOAD \t\t\tconstructor(uint256 p){\\n     ...\n  PUSHSIZE \t\t\tconstructor(uint256 p){\\n     ...\n  CODESIZE \t\t\tconstructor(uint256 p){\\n     ...\n  SUB \t\t\tconstructor(uint256 p){\\n     ...\n  DUP1 \t\t\tconstructor(uint256 p){\\n     ...\n  PUSHSIZE \t\t\tconstructor(uint256 p){\\n     ...\n  DUP4 \t\t\tconstructor(uint256 p){\\n     ...\n  CODECOPY \t\t\tconstructor(uint256 p){\\n     ...\n  DUP2 \t\t\tconstructor(uint256 p){\\n     ...\n  DUP2 \t\t\tconstructor(uint256 p){\\n     ...\n  ADD \t\t\tconstructor(uint256 p){\\n     ...\n  PUSH 40\t\t\tconstructor(uint256 p){\\n     ...\n  MSTORE \t\t\tconstructor(uint256 p){\\n     ...\n  DUP2 \t\t\tconstructor(uint256 p){\\n     ...\n  ADD \t\t\tconstructor(uint256 p){\\n     ...\n  SWAP1 \t\t\tconstructor(uint256 p){\\n     ...\n  PUSH [tag] 2\t\t\tconstructor(uint256 p){\\n     ...\n  SWAP2 \t\t\tconstructor(uint256 p){\\n     ...\n  SWAP1 \t\t\tconstructor(uint256 p){\\n     ...\n  PUSH [tag] 3\t\t\tconstructor(uint256 p){\\n     ...\n  JUMP \t\t\tconstructor(uint256 p){\\n     ...\ntag 2\t\t\tconstructor(uint256 p){\\n     ...\n  JUMPDEST \t\t\tconstructor(uint256 p){\\n     ...\n  CALLER \t\t\tmsg.sender\n  PUSH 3\t\t\towner\n  PUSH 0\t\t\towner\n  PUSH 100\t\t\towner = msg.sender\n  EXP \t\t\towner = msg.sender\n  DUP2 \t\t\towner = msg.sender\n  SLOAD \t\t\towner = msg.sender\n  DUP2 \t\t\towner = msg.sender\n  PUSH FFFFFFFFFFFFFFFFFFFFFFFFFFFFFFFFFFFFFFFF\t\t\towner = msg.sender\n  MUL \t\t\towner = msg.sender\n  NOT \t\t\towner = msg.sender\n  AND \t\t\towner = msg.sender\n  SWAP1 \t\t\towner = msg.sender\n  DUP4 \t\t\towner = msg.sender\n  PUSH FFFFFFFFFFFFFFFFFFFFFFFFFFFFFFFFFFFFFFFF\t\t\towner = msg.sender\n  AND \t\t\towner = msg.sender\n  MUL \t\t\towner = msg.sender\n  OR \t\t\towner = msg.sender\n  SWAP1 \t\t\towner = msg.sender\n  SSTORE \t\t\towner = msg.sender\n  POP \t\t\towner = msg.sender\n  PUSH 2386F26FC10000\t\t\t10**16\n  DUP2 \t\t\tp\n  PUSH [tag] 6\t\t\tp * 10**16\n  SWAP2 \t\t\tp * 10**16\n  SWAP1 \t\t\tp * 10**16\n  PUSH [tag] 7\t\t\tp * 10**16\n  JUMP \t\t\tp * 10**16\ntag 6\t\t\tp * 10**16\n  JUMPDEST \t\t\tp * 10**16\n  PUSH 1\t\t\tprice\n  DUP2 \t\t\tprice = p * 10**16\n  SWAP1 \t\t\tprice = p * 10**16\n  SSTORE \t\t\tprice = p * 10**16\n  POP \t\t\tprice = p * 10**16\n  POP \t\t\tconstructor(uint256 p){\\n     ...\n  PUSH [tag] 8\t\t\tcontract Loterie {\\n\\n    uint...\n  JUMP \t\t\tcontract Loterie {\\n\\n    uint...\ntag 10\t\t\trie\\n * @dev Store & retrieve ...\n  JUMPDEST \t\t\trie\\n * @dev Store & retrieve ...\n  PUSH 0\t\t\ti\n  PUSH 0\t\t\t \n  REVERT \t\t\tnce;\\n    uin\ntag 12\t\t\tice = p * 10**16;\\n    }\\n\\n  ...\n  JUMPDEST \t\t\tice = p * 10**16;\\n    }\\n\\n  ...\n  PUSH 0\t\t\t random\n  DUP2 \t\t\t(addr\n  SWAP1 \t\t\tic returns (addr\n  POP \t\t\tic returns (addr\n  SWAP2 \t\t\tice = p * 10**16;\\n    }\\n\\n  ...\n  SWAP1 \t\t\tice = p * 10**16;\\n    }\\n\\n  ...\n  POP \t\t\tice = p * 10**16;\\n    }\\n\\n  ...\n  JUMP \t\t\tice = p * 10**16;\\n    }\\n\\n  ...\ntag 13\t\t\t   require(msg.sender == owner...\n  JUMPDEST \t\t\t   require(msg.sender == owner...\n  PUSH [tag] 22\t\t\tre(participants.length >\n  DUP2 \t\t\tngth \n  PUSH [tag] 12\t\t\tre(participants.length >\n  JUMP \t\t\tre(participants.length >\ntag 22\t\t\tre(participants.length >\n  JUMPDEST \t\t\tre(participants.length >\n  DUP2 \t\t\t  req\n  EQ \t\t\t     require(participants.leng...\n  PUSH [tag] 23\t\t\tat!\");\\n        require(partic...\n  JUMPI \t\t\tat!\");\\n        require(partic...\n  PUSH 0\t\t\ts\n  PUSH 0\t\t\tb\n  REVERT \t\t\tThe numbers \ntag 23\t\t\tat!\");\\n        require(partic...\n  JUMPDEST \t\t\tat!\");\\n        require(partic...\n  POP \t\t\t   require(msg.sender == owner...\n  JUMP \t\t\t   require(msg.sender == owner...\ntag 14\t\t\ts must be larger than 2\");\\n\\n...\n  JUMPDEST \t\t\ts must be larger than 2\");\\n\\n...\n  PUSH 0\t\t\ticipa\n  DUP2 \t\t\tngth)]\n  MLOAD \t\t\tnts.length)];\n  SWAP1 \t\t\tparticipants.length)];\n  POP \t\t\tparticipants.length)];\n  PUSH [tag] 25\t\t\tpayable(winner).transfer(addre...\n  DUP2 \t\t\tdress\n  PUSH [tag] 13\t\t\tpayable(winner).transfer(addre...\n  JUMP \t\t\tpayable(winner).transfer(addre...\ntag 25\t\t\tpayable(winner).transfer(addre...\n  JUMPDEST \t\t\tpayable(winner).transfer(addre...\n  SWAP3 \t\t\ts must be larger than 2\");\\n\\n...\n  SWAP2 \t\t\ts must be larger than 2\");\\n\\n...\n  POP \t\t\ts must be larger than 2\");\\n\\n...\n  POP \t\t\ts must be larger than 2\");\\n\\n...\n  JUMP \t\t\ts must be larger than 2\");\\n\\n...\ntag 3\t\t\te);\\n\\n        delete particip...\n  JUMPDEST \t\t\te);\\n\\n        delete particip...\n  PUSH 0\t\t\tunctio\n  PUSH 20\t\t\tnt\n  DUP3 \t\t\t returns \n  DUP5 \t\t\t) priva\n  SUB \t\t\tulus) private returns (\n  SLT \t\t\t_modulus) private returns (uin...\n  ISZERO \t\t\tnt _modulus) private returns (...\n  PUSH [tag] 27\t\t\tnt _modulus) private returns (...\n  JUMPI \t\t\tnt _modulus) private returns (...\n  PUSH [tag] 28\t\t\t        randNonce++; // Variab...\n  PUSH [tag] 10\t\t\t        randNonce++; // Variab...\n  JUMP \t\t\t        randNonce++; // Variab...\ntag 28\t\t\t        randNonce++; // Variab...\n  JUMPDEST \t\t\t        randNonce++; // Variab...\ntag 27\t\t\tnt _modulus) private returns (...\n  JUMPDEST \t\t\tnt _modulus) private returns (...\n  PUSH 0\t\t\te\n  PUSH [tag] 29\t\t\t     abi.encodePacked(block.ti...\n  DUP5 \t\t\t       \n  DUP3 \t\t\ter,\\n  \n  DUP6 \t\t\tp, msg.se\n  ADD \t\t\tstamp, msg.sender,\\n   \n  PUSH [tag] 14\t\t\t     abi.encodePacked(block.ti...\n  JUMP \t\t\t     abi.encodePacked(block.ti...\ntag 29\t\t\t     abi.encodePacked(block.ti...\n  JUMPDEST \t\t\t     abi.encodePacked(block.ti...\n  SWAP2 \t\t\t               abi.encodePacke...\n  POP \t\t\t               abi.encodePacke...\n  POP \t\t\t      uint(\\n                k...\n  SWAP3 \t\t\te);\\n\\n        delete particip...\n  SWAP2 \t\t\te);\\n\\n        delete particip...\n  POP \t\t\te);\\n\\n        delete particip...\n  POP \t\t\te);\\n\\n        delete particip...\n  JUMP \t\t\te);\\n\\n        delete particip...\ntag 15\t\t\t           )\\n            ) % ...\n  JUMPDEST \t\t\t           )\\n            ) % ...\n  PUSH 4E487B7100000000000000000000000000000000000000000000000000000000\t\t\t \\n    function getSolde() pub...\n  PUSH 0\t\t\t \n  MSTORE \t\t\t\\n    }\\n    \\n    function ge...\n  PUSH 11\t\t\t}\\n\\n \n  PUSH 4\t\t\t \n  MSTORE \t\t\tance;\\n    }\\n\\n  \n  PUSH 24\t\t\tate(\n  PUSH 0\t\t\tc\n  REVERT \t\t\tn participate()\ntag 7\t\t\tble {\\n        require(msg.sen...\n  JUMPDEST \t\t\tble {\\n        require(msg.sen...\n  PUSH 0\t\t\tr,\"Owne\n  PUSH [tag] 32\t\t\tate\");\\n        requi\n  DUP3 \t\t\tu\n  PUSH [tag] 12\t\t\tate\");\\n        requi\n  JUMP \t\t\tate\");\\n        requi\ntag 32\t\t\tate\");\\n        requi\n  JUMPDEST \t\t\tate\");\\n        requi\n  SWAP2 \t\t\tticipate\");\\n        requi\n  POP \t\t\tticipate\");\\n        requi\n  PUSH [tag] 33\t\t\t= price, \"Price must\n  DUP4 \t\t\ts\n  PUSH [tag] 12\t\t\t= price, \"Price must\n  JUMP \t\t\t= price, \"Price must\ntag 33\t\t\t= price, \"Price must\n  JUMPDEST \t\t\t= price, \"Price must\n  SWAP3 \t\t\tlue == price, \"Price must\n  POP \t\t\tlue == price, \"Price must\n  DUP3 \t\t\th\n  DUP3 \t\t\ty\n  MUL \t\t\ted by the\n  PUSH [tag] 34\t\t\ty\");\\n\\n        bool isAlready...\n  DUP2 \t\t\t isAlreadyP\n  PUSH [tag] 12\t\t\ty\");\\n\\n        bool isAlready...\n  JUMP \t\t\ty\");\\n\\n        bool isAlready...\ntag 34\t\t\ty\");\\n\\n        bool isAlready...\n  JUMPDEST \t\t\ty\");\\n\\n        bool isAlready...\n  SWAP2 \t\t\t the lottery\");\\n\\n        boo...\n  POP \t\t\t the lottery\");\\n\\n        boo...\n  DUP3 \t\t\tr\n  DUP3 \t\t\t     is\n  DIV \t\t\t         isAlre\n  DUP5 \t\t\t \n  EQ \t\t\t               isAlrea\n  DUP4 \t\t\t]\n  ISZERO \t\t\tpants[i] \n  OR \t\t\t         if (participants[i] =...\n  PUSH [tag] 35\t\t\tants.length; i++) {\\n         ...\n  JUMPI \t\t\tants.length; i++) {\\n         ...\n  PUSH [tag] 36\t\t\t           break;\\n\n  PUSH [tag] 15\t\t\t           break;\\n\n  JUMP \t\t\t           break;\\n\ntag 36\t\t\t           break;\\n\n  JUMPDEST \t\t\t           break;\\n\ntag 35\t\t\tants.length; i++) {\\n         ...\n  JUMPDEST \t\t\tants.length; i++) {\\n         ...\n  POP \t\t\t can't participate\");\\n       ...\n  SWAP3 \t\t\tble {\\n        require(msg.sen...\n  SWAP2 \t\t\tble {\\n        require(msg.sen...\n  POP \t\t\tble {\\n        require(msg.sen...\n  POP \t\t\tble {\\n        require(msg.sen...\n  JUMP \t\t\tble {\\n        require(msg.sen...\ntag 8\t\t\tcontract Loterie {\\n\\n    uint...\n  JUMPDEST \t\t\tcontract Loterie {\\n\\n    uint...\n  PUSH #[$] 0000000000000000000000000000000000000000000000000000000000000000\t\t\tcontract Loterie {\\n\\n    uint...\n  DUP1 \t\t\tcontract Loterie {\\n\\n    uint...\n  PUSH [$] 0000000000000000000000000000000000000000000000000000000000000000\t\t\tcontract Loterie {\\n\\n    uint...\n  PUSH 0\t\t\tcontract Loterie {\\n\\n    uint...\n  CODECOPY \t\t\tcontract Loterie {\\n\\n    uint...\n  PUSH 0\t\t\tcontract Loterie {\\n\\n    uint...\n  RETURN \t\t\tcontract Loterie {\\n\\n    uint...\n.data\n  0:\n    .code\n      PUSH 80\t\t\tcontract Loterie {\\n\\n    uint...\n      PUSH 40\t\t\tcontract Loterie {\\n\\n    uint...\n      MSTORE \t\t\tcontract Loterie {\\n\\n    uint...\n      PUSH 4\t\t\tcontract Loterie {\\n\\n    uint...\n      CALLDATASIZE \t\t\tcontract Loterie {\\n\\n    uint...\n      LT \t\t\tcontract Loterie {\\n\\n    uint...\n      PUSH [tag] 1\t\t\tcontract Loterie {\\n\\n    uint...\n      JUMPI \t\t\tcontract Loterie {\\n\\n    uint...\n      PUSH 0\t\t\tcontract Loterie {\\n\\n    uint...\n      CALLDATALOAD \t\t\tcontract Loterie {\\n\\n    uint...\n      PUSH E0\t\t\tcontract Loterie {\\n\\n    uint...\n      SHR \t\t\tcontract Loterie {\\n\\n    uint...\n      DUP1 \t\t\tcontract Loterie {\\n\\n    uint...\n      PUSH 1E62E202\t\t\tcontract Loterie {\\n\\n    uint...\n      EQ \t\t\tcontract Loterie {\\n\\n    uint...\n      PUSH [tag] 2\t\t\tcontract Loterie {\\n\\n    uint...\n      JUMPI \t\t\tcontract Loterie {\\n\\n    uint...\n      DUP1 \t\t\tcontract Loterie {\\n\\n    uint...\n      PUSH 55E5AE04\t\t\tcontract Loterie {\\n\\n    uint...\n      EQ \t\t\tcontract Loterie {\\n\\n    uint...\n      PUSH [tag] 3\t\t\tcontract Loterie {\\n\\n    uint...\n      JUMPI \t\t\tcontract Loterie {\\n\\n    uint...\n      DUP1 \t\t\tcontract Loterie {\\n\\n    uint...\n      PUSH A035B1FE\t\t\tcontract Loterie {\\n\\n    uint...\n      EQ \t\t\tcontract Loterie {\\n\\n    uint...\n      PUSH [tag] 4\t\t\tcontract Loterie {\\n\\n    uint...\n      JUMPI \t\t\tcontract Loterie {\\n\\n    uint...\n      DUP1 \t\t\tcontract Loterie {\\n\\n    uint...\n      PUSH D11711A2\t\t\tcontract Loterie {\\n\\n    uint...\n      EQ \t\t\tcontract Loterie {\\n\\n    uint...\n      PUSH [tag] 5\t\t\tcontract Loterie {\\n\\n    uint...\n      JUMPI \t\t\tcontract Loterie {\\n\\n    uint...\n    tag 1\t\t\tcontract Loterie {\\n\\n    uint...\n      JUMPDEST \t\t\tcontract Loterie {\\n\\n    uint...\n      PUSH 0\t\t\tcontract Loterie {\\n\\n    uint...\n      PUSH 0\t\t\tcontract Loterie {\\n\\n    uint...\n      REVERT \t\t\tcontract Loterie {\\n\\n    uint...\n    tag 2\t\t\tfunction randomDraw() public r...\n      JUMPDEST \t\t\tfunction randomDraw() public r...\n      CALLVALUE \t\t\tfunction randomDraw() public r...\n      DUP1 \t\t\tfunction randomDraw() public r...\n      ISZERO \t\t\tfunction randomDraw() public r...\n      PUSH [tag] 6\t\t\tfunction randomDraw() public r...\n      JUMPI \t\t\tfunction randomDraw() public r...\n      PUSH 0\t\t\tfunction randomDraw() public r...\n      PUSH 0\t\t\tfunction randomDraw() public r...\n      REVERT \t\t\tfunction randomDraw() public r...\n    tag 6\t\t\tfunction randomDraw() public r...\n      JUMPDEST \t\t\tfunction randomDraw() public r...\n      POP \t\t\tfunction randomDraw() public r...\n      PUSH [tag] 7\t\t\tfunction randomDraw() public r...\n      PUSH [tag] 8\t\t\tfunction randomDraw() public r...\n      JUMP \t\t\tfunction randomDraw() public r...\n    tag 7\t\t\tfunction randomDraw() public r...\n      JUMPDEST \t\t\tfunction randomDraw() public r...\n      PUSH 40\t\t\tfunction randomDraw() public r...\n      MLOAD \t\t\tfunction randomDraw() public r...\n      PUSH [tag] 9\t\t\tfunction randomDraw() public r...\n      SWAP2 \t\t\tfunction randomDraw() public r...\n      SWAP1 \t\t\tfunction randomDraw() public r...\n      PUSH [tag] 10\t\t\tfunction randomDraw() public r...\n      JUMP \t\t\tfunction randomDraw() public r...\n    tag 9\t\t\tfunction randomDraw() public r...\n      JUMPDEST \t\t\tfunction randomDraw() public r...\n      PUSH 40\t\t\tfunction randomDraw() public r...\n      MLOAD \t\t\tfunction randomDraw() public r...\n      DUP1 \t\t\tfunction randomDraw() public r...\n      SWAP2 \t\t\tfunction randomDraw() public r...\n      SUB \t\t\tfunction randomDraw() public r...\n      SWAP1 \t\t\tfunction randomDraw() public r...\n      RETURN \t\t\tfunction randomDraw() public r...\n    tag 3\t\t\ton getSolde() public view retu...\n      JUMPDEST \t\t\ton getSolde() public view retu...\n      CALLVALUE \t\t\ton getSolde() public view retu...\n      DUP1 \t\t\ton getSolde() public view retu...\n      ISZERO \t\t\ton getSolde() public view retu...\n      PUSH [tag] 11\t\t\ton getSolde() public view retu...\n      JUMPI \t\t\ton getSolde() public view retu...\n      PUSH 0\t\t\ton getSolde() public view retu...\n      PUSH 0\t\t\ton getSolde() public view retu...\n      REVERT \t\t\ton getSolde() public view retu...\n    tag 11\t\t\ton getSolde() public view retu...\n      JUMPDEST \t\t\ton getSolde() public view retu...\n      POP \t\t\ton getSolde() public view retu...\n      PUSH [tag] 12\t\t\ton getSolde() public view retu...\n      PUSH [tag] 13\t\t\ton getSolde() public view retu...\n      JUMP \t\t\ton getSolde() public view retu...\n    tag 12\t\t\ton getSolde() public view retu...\n      JUMPDEST \t\t\ton getSolde() public view retu...\n      PUSH 40\t\t\ton getSolde() public view retu...\n      MLOAD \t\t\ton getSolde() public view retu...\n      PUSH [tag] 14\t\t\ton getSolde() public view retu...\n      SWAP2 \t\t\ton getSolde() public view retu...\n      SWAP1 \t\t\ton getSolde() public view retu...\n      PUSH [tag] 15\t\t\ton getSolde() public view retu...\n      JUMP \t\t\ton getSolde() public view retu...\n    tag 14\t\t\ton getSolde() public view retu...\n      JUMPDEST \t\t\ton getSolde() public view retu...\n      PUSH 40\t\t\ton getSolde() public view retu...\n      MLOAD \t\t\ton getSolde() public view retu...\n      DUP1 \t\t\ton getSolde() public view retu...\n      SWAP2 \t\t\ton getSolde() public view retu...\n      SUB \t\t\ton getSolde() public view retu...\n      SWAP1 \t\t\ton getSolde() public view retu...\n      RETURN \t\t\ton getSolde() public view retu...\n    tag 4\t\t\tuint256 public price\n      JUMPDEST \t\t\tuint256 public price\n      CALLVALUE \t\t\tuint256 public price\n      DUP1 \t\t\tuint256 public price\n      ISZERO \t\t\tuint256 public price\n      PUSH [tag] 16\t\t\tuint256 public price\n      JUMPI \t\t\tuint256 public price\n      PUSH 0\t\t\tuint256 public price\n      PUSH 0\t\t\tuint256 public price\n      REVERT \t\t\tuint256 public price\n    tag 16\t\t\tuint256 public price\n      JUMPDEST \t\t\tuint256 public price\n      POP \t\t\tuint256 public price\n      PUSH [tag] 17\t\t\tuint256 public price\n      PUSH [tag] 18\t\t\tuint256 public price\n      JUMP \t\t\tuint256 public price\n    tag 17\t\t\tuint256 public price\n      JUMPDEST \t\t\tuint256 public price\n      PUSH 40\t\t\tuint256 public price\n      MLOAD \t\t\tuint256 public price\n      PUSH [tag] 19\t\t\tuint256 public price\n      SWAP2 \t\t\tuint256 public price\n      SWAP1 \t\t\tuint256 public price\n      PUSH [tag] 15\t\t\tuint256 public price\n      JUMP \t\t\tuint256 public price\n    tag 19\t\t\tuint256 public price\n      JUMPDEST \t\t\tuint256 public price\n      PUSH 40\t\t\tuint256 public price\n      MLOAD \t\t\tuint256 public price\n      DUP1 \t\t\tuint256 public price\n      SWAP2 \t\t\tuint256 public price\n      SUB \t\t\tuint256 public price\n      SWAP1 \t\t\tuint256 public price\n      RETURN \t\t\tuint256 public price\n    tag 5\t\t\ton participate() public payabl...\n      JUMPDEST \t\t\ton participate() public payabl...\n      PUSH [tag] 20\t\t\ton participate() public payabl...\n      PUSH [tag] 21\t\t\ton participate() public payabl...\n      JUMP \t\t\ton participate() public payabl...\n    tag 20\t\t\ton participate() public payabl...\n      JUMPDEST \t\t\ton participate() public payabl...\n      STOP \t\t\ton participate() public payabl...\n    tag 8\t\t\tfunction randomDraw() public r...\n      JUMPDEST \t\t\tfunction randomDraw() public r...\n      PUSH 0\t\t\taddress\n      PUSH 3\t\t\towner\n      PUSH 0\t\t\towner\n      SWAP1 \t\t\towner\n      SLOAD \t\t\towner\n      SWAP1 \t\t\towner\n      PUSH 100\t\t\towner\n      EXP \t\t\towner\n      SWAP1 \t\t\towner\n      DIV \t\t\towner\n      PUSH FFFFFFFFFFFFFFFFFFFFFFFFFFFFFFFFFFFFFFFF\t\t\towner\n      AND \t\t\towner\n      PUSH FFFFFFFFFFFFFFFFFFFFFFFFFFFFFFFFFFFFFFFF\t\t\tmsg.sender == owner\n      AND \t\t\tmsg.sender == owner\n      CALLER \t\t\tmsg.sender\n      PUSH FFFFFFFFFFFFFFFFFFFFFFFFFFFFFFFFFFFFFFFF\t\t\tmsg.sender == owner\n      AND \t\t\tmsg.sender == owner\n      EQ \t\t\tmsg.sender == owner\n      PUSH [tag] 23\t\t\trequire(msg.sender == owner, \"...\n      JUMPI \t\t\trequire(msg.sender == owner, \"...\n      PUSH 40\t\t\trequire(msg.sender == owner, \"...\n      MLOAD \t\t\trequire(msg.sender == owner, \"...\n      PUSH 8C379A000000000000000000000000000000000000000000000000000000000\t\t\trequire(msg.sender == owner, \"...\n      DUP2 \t\t\trequire(msg.sender == owner, \"...\n      MSTORE \t\t\trequire(msg.sender == owner, \"...\n      PUSH 4\t\t\trequire(msg.sender == owner, \"...\n      ADD \t\t\trequire(msg.sender == owner, \"...\n      PUSH [tag] 24\t\t\trequire(msg.sender == owner, \"...\n      SWAP1 \t\t\trequire(msg.sender == owner, \"...\n      PUSH [tag] 25\t\t\trequire(msg.sender == owner, \"...\n      JUMP \t\t\trequire(msg.sender == owner, \"...\n    tag 24\t\t\trequire(msg.sender == owner, \"...\n      JUMPDEST \t\t\trequire(msg.sender == owner, \"...\n      PUSH 40\t\t\trequire(msg.sender == owner, \"...\n      MLOAD \t\t\trequire(msg.sender == owner, \"...\n      DUP1 \t\t\trequire(msg.sender == owner, \"...\n      SWAP2 \t\t\trequire(msg.sender == owner, \"...\n      SUB \t\t\trequire(msg.sender == owner, \"...\n      SWAP1 \t\t\trequire(msg.sender == owner, \"...\n      REVERT \t\t\trequire(msg.sender == owner, \"...\n    tag 23\t\t\trequire(msg.sender == owner, \"...\n      JUMPDEST \t\t\trequire(msg.sender == owner, \"...\n      PUSH 2\t\t\t2\n      DUP1 \t\t\tparticipants\n      DUP1 \t\t\tparticipants.length\n      SLOAD \t\t\tparticipants.length\n      SWAP1 \t\t\tparticipants.length\n      POP \t\t\tparticipants.length\n      GT \t\t\tparticipants.length > 2\n      PUSH [tag] 26\t\t\trequire(participants.length > ...\n      JUMPI \t\t\trequire(participants.length > ...\n      PUSH 40\t\t\trequire(participants.length > ...\n      MLOAD \t\t\trequire(participants.length > ...\n      PUSH 8C379A000000000000000000000000000000000000000000000000000000000\t\t\trequire(participants.length > ...\n      DUP2 \t\t\trequire(participants.length > ...\n      MSTORE \t\t\trequire(participants.length > ...\n      PUSH 4\t\t\trequire(participants.length > ...\n      ADD \t\t\trequire(participants.length > ...\n      PUSH [tag] 27\t\t\trequire(participants.length > ...\n      SWAP1 \t\t\trequire(participants.length > ...\n      PUSH [tag] 28\t\t\trequire(participants.length > ...\n      JUMP \t\t\trequire(participants.length > ...\n    tag 27\t\t\trequire(participants.length > ...\n      JUMPDEST \t\t\trequire(participants.length > ...\n      PUSH 40\t\t\trequire(participants.length > ...\n      MLOAD \t\t\trequire(participants.length > ...\n      DUP1 \t\t\trequire(participants.length > ...\n      SWAP2 \t\t\trequire(participants.length > ...\n      SUB \t\t\trequire(participants.length > ...\n      SWAP1 \t\t\trequire(participants.length > ...\n      REVERT \t\t\trequire(participants.length > ...\n    tag 26\t\t\trequire(participants.length > ...\n      JUMPDEST \t\t\trequire(participants.length > ...\n      PUSH 0\t\t\taddress winner\n      PUSH 2\t\t\tparticipants\n      PUSH [tag] 29\t\t\trandom(participants.length)\n      PUSH 2\t\t\tparticipants\n      DUP1 \t\t\tparticipants.length\n      SLOAD \t\t\tparticipants.length\n      SWAP1 \t\t\tparticipants.length\n      POP \t\t\tparticipants.length\n      PUSH [tag] 30\t\t\trandom\n      JUMP \t\t\trandom(participants.length)\n    tag 29\t\t\trandom(participants.length)\n      JUMPDEST \t\t\trandom(participants.length)\n      DUP2 \t\t\tparticipants[random(participan...\n      SLOAD \t\t\tparticipants[random(participan...\n      DUP2 \t\t\tparticipants[random(participan...\n      LT \t\t\tparticipants[random(participan...\n      PUSH [tag] 31\t\t\tparticipants[random(participan...\n      JUMPI \t\t\tparticipants[random(participan...\n      PUSH [tag] 32\t\t\tparticipants[random(participan...\n      PUSH [tag] 33\t\t\tparticipants[random(participan...\n      JUMP \t\t\tparticipants[random(participan...\n    tag 32\t\t\tparticipants[random(participan...\n      JUMPDEST \t\t\tparticipants[random(participan...\n    tag 31\t\t\tparticipants[random(participan...\n      JUMPDEST \t\t\tparticipants[random(participan...\n      SWAP1 \t\t\tparticipants[random(participan...\n      PUSH 0\t\t\tparticipants[random(participan...\n      MSTORE \t\t\tparticipants[random(participan...\n      PUSH 20\t\t\tparticipants[random(participan...\n      PUSH 0\t\t\tparticipants[random(participan...\n      KECCAK256 \t\t\tparticipants[random(participan...\n      ADD \t\t\tparticipants[random(participan...\n      PUSH 0\t\t\tparticipants[random(participan...\n      SWAP1 \t\t\tparticipants[random(participan...\n      SLOAD \t\t\tparticipants[random(participan...\n      SWAP1 \t\t\tparticipants[random(participan...\n      PUSH 100\t\t\tparticipants[random(participan...\n      EXP \t\t\tparticipants[random(participan...\n      SWAP1 \t\t\tparticipants[random(participan...\n      DIV \t\t\tparticipants[random(participan...\n      PUSH FFFFFFFFFFFFFFFFFFFFFFFFFFFFFFFFFFFFFFFF\t\t\tparticipants[random(participan...\n      AND \t\t\tparticipants[random(participan...\n      SWAP1 \t\t\taddress winner = participants[...\n      POP \t\t\taddress winner = participants[...\n      DUP1 \t\t\twinner\n      PUSH FFFFFFFFFFFFFFFFFFFFFFFFFFFFFFFFFFFFFFFF\t\t\tpayable(winner).transfer\n      AND \t\t\tpayable(winner).transfer\n      PUSH 8FC\t\t\tpayable(winner).transfer(addre...\n      SELFBALANCE \t\t\taddress(this).balance\n      SWAP1 \t\t\tpayable(winner).transfer(addre...\n      DUP2 \t\t\tpayable(winner).transfer(addre...\n      ISZERO \t\t\tpayable(winner).transfer(addre...\n      MUL \t\t\tpayable(winner).transfer(addre...\n      SWAP1 \t\t\tpayable(winner).transfer(addre...\n      PUSH 40\t\t\tpayable(winner).transfer(addre...\n      MLOAD \t\t\tpayable(winner).transfer(addre...\n      PUSH 0\t\t\tpayable(winner).transfer(addre...\n      PUSH 40\t\t\tpayable(winner).transfer(addre...\n      MLOAD \t\t\tpayable(winner).transfer(addre...\n      DUP1 \t\t\tpayable(winner).transfer(addre...\n      DUP4 \t\t\tpayable(winner).transfer(addre...\n      SUB \t\t\tpayable(winner).transfer(addre...\n      DUP2 \t\t\tpayable(winner).transfer(addre...\n      DUP6 \t\t\tpayable(winner).transfer(addre...\n      DUP9 \t\t\tpayable(winner).transfer(addre...\n      DUP9 \t\t\tpayable(winner).transfer(addre...\n      CALL \t\t\tpayable(winner).transfer(addre...\n      SWAP4 \t\t\tpayable(winner).transfer(addre...\n      POP \t\t\tpayable(winner).transfer(addre...\n      POP \t\t\tpayable(winner).transfer(addre...\n      POP \t\t\tpayable(winner).transfer(addre...\n      POP \t\t\tpayable(winner).transfer(addre...\n      ISZERO \t\t\tpayable(winner).transfer(addre...\n      DUP1 \t\t\tpayable(winner).transfer(addre...\n      ISZERO \t\t\tpayable(winner).transfer(addre...\n      PUSH [tag] 36\t\t\tpayable(winner).transfer(addre...\n      JUMPI \t\t\tpayable(winner).transfer(addre...\n      RETURNDATASIZE \t\t\tpayable(winner).transfer(addre...\n      PUSH 0\t\t\tpayable(winner).transfer(addre...\n      PUSH 0\t\t\tpayable(winner).transfer(addre...\n      RETURNDATACOPY \t\t\tpayable(winner).transfer(addre...\n      RETURNDATASIZE \t\t\tpayable(winner).transfer(addre...\n      PUSH 0\t\t\tpayable(winner).transfer(addre...\n      REVERT \t\t\tpayable(winner).transfer(addre...\n    tag 36\t\t\tpayable(winner).transfer(addre...\n      JUMPDEST \t\t\tpayable(winner).transfer(addre...\n      POP \t\t\tpayable(winner).transfer(addre...\n      PUSH 2\t\t\tparticipants\n      PUSH 0\t\t\tparticipants\n      PUSH [tag] 37\t\t\tdelete participants\n      SWAP2 \t\t\tdelete participants\n      SWAP1 \t\t\tdelete participants\n      PUSH [tag] 38\t\t\tdelete participants\n      JUMP \t\t\tdelete participants\n    tag 37\t\t\tdelete participants\n      JUMPDEST \t\t\tdelete participants\n      DUP1 \t\t\twinner\n      SWAP2 \t\t\treturn winner\n      POP \t\t\treturn winner\n      POP \t\t\treturn winner\n      SWAP1 \t\t\tfunction randomDraw() public r...\n      JUMP \t\t\tfunction randomDraw() public r...\n    tag 13\t\t\ton getSolde() public view retu...\n      JUMPDEST \t\t\ton getSolde() public view retu...\n      PUSH 0\t\t\t{\\n  \n      SELFBALANCE \t\t\ts(this).balance;\\n    \n      SWAP1 \t\t\t address(this).balance;\\n    \n      POP \t\t\t address(this).balance;\\n    \n      SWAP1 \t\t\ton getSolde() public view retu...\n      JUMP \t\t\ton getSolde() public view retu...\n    tag 18\t\t\tuint256 public price\n      JUMPDEST \t\t\tuint256 public price\n      PUSH 1\t\t\tuint256 public price\n      SLOAD \t\t\tuint256 public price\n      DUP2 \t\t\tuint256 public price\n      JUMP \t\t\tuint256 public price\n    tag 21\t\t\ton participate() public payabl...\n      JUMPDEST \t\t\ton participate() public payabl...\n      PUSH 3\t\t\t\"Owne\n      PUSH 0\t\t\t\"Owne\n      SWAP1 \t\t\t\"Owne\n      SLOAD \t\t\t\"Owne\n      SWAP1 \t\t\t\"Owne\n      PUSH 100\t\t\t\"Owne\n      EXP \t\t\t\"Owne\n      SWAP1 \t\t\t\"Owne\n      DIV \t\t\t\"Owne\n      PUSH FFFFFFFFFFFFFFFFFFFFFFFFFFFFFFFFFFFFFFFF\t\t\t\"Owne\n      AND \t\t\t\"Owne\n      PUSH FFFFFFFFFFFFFFFFFFFFFFFFFFFFFFFFFFFFFFFF\t\t\tnder != owner,\"Owne\n      AND \t\t\tnder != owner,\"Owne\n      CALLER \t\t\tnder != ow\n      PUSH FFFFFFFFFFFFFFFFFFFFFFFFFFFFFFFFFFFFFFFF\t\t\tnder != owner,\"Owne\n      AND \t\t\tnder != owner,\"Owne\n      SUB \t\t\tnder != owner,\"Owne\n      PUSH [tag] 41\t\t\te(msg.sender != owner,\"Owner c...\n      JUMPI \t\t\te(msg.sender != owner,\"Owner c...\n      PUSH 40\t\t\te(msg.sender != owner,\"Owner c...\n      MLOAD \t\t\te(msg.sender != owner,\"Owner c...\n      PUSH 8C379A000000000000000000000000000000000000000000000000000000000\t\t\te(msg.sender != owner,\"Owner c...\n      DUP2 \t\t\te(msg.sender != owner,\"Owner c...\n      MSTORE \t\t\te(msg.sender != owner,\"Owner c...\n      PUSH 4\t\t\te(msg.sender != owner,\"Owner c...\n      ADD \t\t\te(msg.sender != owner,\"Owner c...\n      PUSH [tag] 42\t\t\te(msg.sender != owner,\"Owner c...\n      SWAP1 \t\t\te(msg.sender != owner,\"Owner c...\n      PUSH [tag] 43\t\t\te(msg.sender != owner,\"Owner c...\n      JUMP \t\t\te(msg.sender != owner,\"Owner c...\n    tag 42\t\t\te(msg.sender != owner,\"Owner c...\n      JUMPDEST \t\t\te(msg.sender != owner,\"Owner c...\n      PUSH 40\t\t\te(msg.sender != owner,\"Owner c...\n      MLOAD \t\t\te(msg.sender != owner,\"Owner c...\n      DUP1 \t\t\te(msg.sender != owner,\"Owner c...\n      SWAP2 \t\t\te(msg.sender != owner,\"Owner c...\n      SUB \t\t\te(msg.sender != owner,\"Owner c...\n      SWAP1 \t\t\te(msg.sender != owner,\"Owner c...\n      REVERT \t\t\te(msg.sender != owner,\"Owner c...\n    tag 41\t\t\te(msg.sender != owner,\"Owner c...\n      JUMPDEST \t\t\te(msg.sender != owner,\"Owner c...\n      PUSH 1\t\t\t \"Pri\n      SLOAD \t\t\t \"Pri\n      CALLVALUE \t\t\tlue == pr\n      EQ \t\t\tlue == price, \"Pri\n      PUSH [tag] 44\t\t\te(msg.value == price, \"Price m...\n      JUMPI \t\t\te(msg.value == price, \"Price m...\n      PUSH 40\t\t\te(msg.value == price, \"Price m...\n      MLOAD \t\t\te(msg.value == price, \"Price m...\n      PUSH 8C379A000000000000000000000000000000000000000000000000000000000\t\t\te(msg.value == price, \"Price m...\n      DUP2 \t\t\te(msg.value == price, \"Price m...\n      MSTORE \t\t\te(msg.value == price, \"Price m...\n      PUSH 4\t\t\te(msg.value == price, \"Price m...\n      ADD \t\t\te(msg.value == price, \"Price m...\n      PUSH [tag] 45\t\t\te(msg.value == price, \"Price m...\n      SWAP1 \t\t\te(msg.value == price, \"Price m...\n      PUSH [tag] 46\t\t\te(msg.value == price, \"Price m...\n      JUMP \t\t\te(msg.value == price, \"Price m...\n    tag 45\t\t\te(msg.value == price, \"Price m...\n      JUMPDEST \t\t\te(msg.value == price, \"Price m...\n      PUSH 40\t\t\te(msg.value == price, \"Price m...\n      MLOAD \t\t\te(msg.value == price, \"Price m...\n      DUP1 \t\t\te(msg.value == price, \"Price m...\n      SWAP2 \t\t\te(msg.value == price, \"Price m...\n      SUB \t\t\te(msg.value == price, \"Price m...\n      SWAP1 \t\t\te(msg.value == price, \"Price m...\n      REVERT \t\t\te(msg.value == price, \"Price m...\n    tag 44\t\t\te(msg.value == price, \"Price m...\n      JUMPDEST \t\t\te(msg.value == price, \"Price m...\n      PUSH 0\t\t\tsAlreadyParticipant = fal\n      PUSH 0\t\t\t\\n\\n   \n      SWAP1 \t\t\tsAlreadyParticipant = false;\\n...\n      POP \t\t\tsAlreadyParticipant = false;\\n...\n      PUSH 0\t\t\t6 i = 0; \n      PUSH 0\t\t\t \n      SWAP1 \t\t\t6 i = 0; i < \n      POP \t\t\t6 i = 0; i < \n    tag 47\t\t\tint256 i = 0; i < participants...\n      JUMPDEST \t\t\tint256 i = 0; i < participants...\n      PUSH 2\t\t\tipants.lengt\n      DUP1 \t\t\tipants.length; i++)\n      SLOAD \t\t\tipants.length; i++)\n      SWAP1 \t\t\tipants.length; i++)\n      POP \t\t\tipants.length; i++)\n      DUP2 \t\t\tr\n      LT \t\t\trticipants.length; i++)\n      ISZERO \t\t\tint256 i = 0; i < participants...\n      PUSH [tag] 48\t\t\tint256 i = 0; i < participants...\n      JUMPI \t\t\tint256 i = 0; i < participants...\n      CALLER \t\t\tnder) {\\n  \n      PUSH FFFFFFFFFFFFFFFFFFFFFFFFFFFFFFFFFFFFFFFF\t\t\tipants[i] == msg.sender) {\\n  \n      AND \t\t\tipants[i] == msg.sender) {\\n  \n      PUSH 2\t\t\tipants[i] ==\n      DUP3 \t\t\tm\n      DUP2 \t\t\tipants[i] == ms\n      SLOAD \t\t\tipants[i] == ms\n      DUP2 \t\t\tipants[i] == ms\n      LT \t\t\tipants[i] == ms\n      PUSH [tag] 50\t\t\tipants[i] == ms\n      JUMPI \t\t\tipants[i] == ms\n      PUSH [tag] 51\t\t\tipants[i] == ms\n      PUSH [tag] 33\t\t\tipants[i] == ms\n      JUMP \t\t\tipants[i] == ms\n    tag 51\t\t\tipants[i] == ms\n      JUMPDEST \t\t\tipants[i] == ms\n    tag 50\t\t\tipants[i] == ms\n      JUMPDEST \t\t\tipants[i] == ms\n      SWAP1 \t\t\tipants[i] == ms\n      PUSH 0\t\t\tipants[i] == ms\n      MSTORE \t\t\tipants[i] == ms\n      PUSH 20\t\t\tipants[i] == ms\n      PUSH 0\t\t\tipants[i] == ms\n      KECCAK256 \t\t\tipants[i] == ms\n      ADD \t\t\tipants[i] == ms\n      PUSH 0\t\t\tipants[i] == ms\n      SWAP1 \t\t\tipants[i] == ms\n      SLOAD \t\t\tipants[i] == ms\n      SWAP1 \t\t\tipants[i] == ms\n      PUSH 100\t\t\tipants[i] == ms\n      EXP \t\t\tipants[i] == ms\n      SWAP1 \t\t\tipants[i] == ms\n      DIV \t\t\tipants[i] == ms\n      PUSH FFFFFFFFFFFFFFFFFFFFFFFFFFFFFFFFFFFFFFFF\t\t\tipants[i] == ms\n      AND \t\t\tipants[i] == ms\n      PUSH FFFFFFFFFFFFFFFFFFFFFFFFFFFFFFFFFFFFFFFF\t\t\tipants[i] == msg.sender) {\\n  \n      AND \t\t\tipants[i] == msg.sender) {\\n  \n      SUB \t\t\tipants[i] == msg.sender) {\\n  \n      PUSH [tag] 53\t\t\trticipants[i] == msg.sender) {...\n      JUMPI \t\t\trticipants[i] == msg.sender) {...\n      PUSH 1\t\t\t    \n      SWAP2 \t\t\tadyParticipant = true;\\n    \n      POP \t\t\tadyParticipant = true;\\n    \n      PUSH [tag] 48\t\t\t\\n    \n      JUMP \t\t\t\\n    \n    tag 53\t\t\trticipants[i] == msg.sender) {...\n      JUMPDEST \t\t\trticipants[i] == msg.sender) {...\n      DUP1 \t\t\t\\n  \n      DUP1 \t\t\t\\n  \n      PUSH 1\t\t\t\\n  \n      ADD \t\t\t\\n  \n      SWAP2 \t\t\t\\n  \n      POP \t\t\t\\n  \n      POP \t\t\t\\n  \n      PUSH [tag] 47\t\t\tint256 i = 0; i < participants...\n      JUMP \t\t\tint256 i = 0; i < participants...\n    tag 48\t\t\tint256 i = 0; i < participants...\n      JUMPDEST \t\t\tint256 i = 0; i < participants...\n      POP \t\t\tint256 i = 0; i < participants...\n      DUP1 \t\t\tadyParticipant, \"A p\n      ISZERO \t\t\teadyParticipant, \"A p\n      PUSH [tag] 54\t\t\te(!isAlreadyParticipant, \"A pa...\n      JUMPI \t\t\te(!isAlreadyParticipant, \"A pa...\n      PUSH 40\t\t\te(!isAlreadyParticipant, \"A pa...\n      MLOAD \t\t\te(!isAlreadyParticipant, \"A pa...\n      PUSH 8C379A000000000000000000000000000000000000000000000000000000000\t\t\te(!isAlreadyParticipant, \"A pa...\n      DUP2 \t\t\te(!isAlreadyParticipant, \"A pa...\n      MSTORE \t\t\te(!isAlreadyParticipant, \"A pa...\n      PUSH 4\t\t\te(!isAlreadyParticipant, \"A pa...\n      ADD \t\t\te(!isAlreadyParticipant, \"A pa...\n      PUSH [tag] 55\t\t\te(!isAlreadyParticipant, \"A pa...\n      SWAP1 \t\t\te(!isAlreadyParticipant, \"A pa...\n      PUSH [tag] 56\t\t\te(!isAlreadyParticipant, \"A pa...\n      JUMP \t\t\te(!isAlreadyParticipant, \"A pa...\n    tag 55\t\t\te(!isAlreadyParticipant, \"A pa...\n      JUMPDEST \t\t\te(!isAlreadyParticipant, \"A pa...\n      PUSH 40\t\t\te(!isAlreadyParticipant, \"A pa...\n      MLOAD \t\t\te(!isAlreadyParticipant, \"A pa...\n      DUP1 \t\t\te(!isAlreadyParticipant, \"A pa...\n      SWAP2 \t\t\te(!isAlreadyParticipant, \"A pa...\n      SUB \t\t\te(!isAlreadyParticipant, \"A pa...\n      SWAP1 \t\t\te(!isAlreadyParticipant, \"A pa...\n      REVERT \t\t\te(!isAlreadyParticipant, \"A pa...\n    tag 54\t\t\te(!isAlreadyParticipant, \"A pa...\n      JUMPDEST \t\t\te(!isAlreadyParticipant, \"A pa...\n      PUSH 2\t\t\tipants.push(\n      CALLER \t\t\tnder);\\n   \n      SWAP1 \t\t\tipants.push(msg.sender);\\n    \n      DUP1 \t\t\tipants.push(msg.sender);\\n    \n      PUSH 1\t\t\tipants.push(msg.sender);\\n    \n      DUP2 \t\t\tipants.push(msg.sender);\\n    \n      SLOAD \t\t\tipants.push(msg.sender);\\n    \n      ADD \t\t\tipants.push(msg.sender);\\n    \n      DUP1 \t\t\tipants.push(msg.sender);\\n    \n      DUP3 \t\t\tipants.push(msg.sender);\\n    \n      SSTORE \t\t\tipants.push(msg.sender);\\n    \n      DUP1 \t\t\tipants.push(msg.sender);\\n    \n      SWAP2 \t\t\tipants.push(msg.sender);\\n    \n      POP \t\t\tipants.push(msg.sender);\\n    \n      POP \t\t\tipants.push(msg.sender);\\n    \n      PUSH 1\t\t\tipants.push(msg.sender);\\n    \n      SWAP1 \t\t\tipants.push(msg.sender);\\n    \n      SUB \t\t\tipants.push(msg.sender);\\n    \n      SWAP1 \t\t\tipants.push(msg.sender);\\n    \n      PUSH 0\t\t\tipants.push(msg.sender);\\n    \n      MSTORE \t\t\tipants.push(msg.sender);\\n    \n      PUSH 20\t\t\tipants.push(msg.sender);\\n    \n      PUSH 0\t\t\tipants.push(msg.sender);\\n    \n      KECCAK256 \t\t\tipants.push(msg.sender);\\n    \n      ADD \t\t\tipants.push(msg.sender);\\n    \n      PUSH 0\t\t\tipants.push(msg.sender);\\n    \n      SWAP1 \t\t\tipants.push(msg.sender);\\n    \n      SWAP2 \t\t\tipants.push(msg.sender);\\n    \n      SWAP1 \t\t\tipants.push(msg.sender);\\n    \n      SWAP2 \t\t\tipants.push(msg.sender);\\n    \n      SWAP1 \t\t\tipants.push(msg.sender);\\n    \n      SWAP2 \t\t\tipants.push(msg.sender);\\n    \n      PUSH 100\t\t\tipants.push(msg.sender);\\n    \n      EXP \t\t\tipants.push(msg.sender);\\n    \n      DUP2 \t\t\tipants.push(msg.sender);\\n    \n      SLOAD \t\t\tipants.push(msg.sender);\\n    \n      DUP2 \t\t\tipants.push(msg.sender);\\n    \n      PUSH FFFFFFFFFFFFFFFFFFFFFFFFFFFFFFFFFFFFFFFF\t\t\tipants.push(msg.sender);\\n    \n      MUL \t\t\tipants.push(msg.sender);\\n    \n      NOT \t\t\tipants.push(msg.sender);\\n    \n      AND \t\t\tipants.push(msg.sender);\\n    \n      SWAP1 \t\t\tipants.push(msg.sender);\\n    \n      DUP4 \t\t\tipants.push(msg.sender);\\n    \n      PUSH FFFFFFFFFFFFFFFFFFFFFFFFFFFFFFFFFFFFFFFF\t\t\tipants.push(msg.sender);\\n    \n      AND \t\t\tipants.push(msg.sender);\\n    \n      MUL \t\t\tipants.push(msg.sender);\\n    \n      OR \t\t\tipants.push(msg.sender);\\n    \n      SWAP1 \t\t\tipants.push(msg.sender);\\n    \n      SSTORE \t\t\tipants.push(msg.sender);\\n    \n      POP \t\t\tipants.push(msg.sender);\\n    \n      POP \t\t\t    require(msg.sender != owne...\n      JUMP \t\t\ton participate() public payabl...\n    tag 30\t\t\tfunction random(uint _modulus)...\n      JUMPDEST \t\t\tfunction random(uint _modulus)...\n      PUSH 0\t\t\tuint\n      PUSH 0\t\t\trandNonce\n      PUSH 0\t\t\trandNonce\n      DUP2 \t\t\trandNonce++\n      SLOAD \t\t\trandNonce++\n      DUP1 \t\t\trandNonce++\n      SWAP3 \t\t\trandNonce++\n      SWAP2 \t\t\trandNonce++\n      SWAP1 \t\t\trandNonce++\n      PUSH [tag] 59\t\t\trandNonce++\n      SWAP1 \t\t\trandNonce++\n      PUSH [tag] 60\t\t\trandNonce++\n      JUMP \t\t\trandNonce++\n    tag 59\t\t\trandNonce++\n      JUMPDEST \t\t\trandNonce++\n      SWAP2 \t\t\trandNonce++\n      SWAP1 \t\t\trandNonce++\n      POP \t\t\trandNonce++\n      SSTORE \t\t\trandNonce++\n      POP \t\t\trandNonce++\n      DUP2 \t\t\tus;\\n    \n      TIMESTAMP \t\t\ttimestamp, msg.\n      CALLER \t\t\tnder,\\n    \n      PUSH 0\t\t\tnce)\\n    \n      SLOAD \t\t\tnce)\\n    \n      PUSH 40\t\t\tcodePacked(block.timestamp, ms...\n      MLOAD \t\t\tcodePacked(block.timestamp, ms...\n      PUSH 20\t\t\tcodePacked(block.timestamp, ms...\n      ADD \t\t\tcodePacked(block.timestamp, ms...\n      PUSH [tag] 61\t\t\tcodePacked(block.timestamp, ms...\n      SWAP4 \t\t\tcodePacked(block.timestamp, ms...\n      SWAP3 \t\t\tcodePacked(block.timestamp, ms...\n      SWAP2 \t\t\tcodePacked(block.timestamp, ms...\n      SWAP1 \t\t\tcodePacked(block.timestamp, ms...\n      PUSH [tag] 62\t\t\tcodePacked(block.timestamp, ms...\n      JUMP \t\t\tcodePacked(block.timestamp, ms...\n    tag 61\t\t\tcodePacked(block.timestamp, ms...\n      JUMPDEST \t\t\tcodePacked(block.timestamp, ms...\n      PUSH 40\t\t\tcodePacked(block.timestamp, ms...\n      MLOAD \t\t\tcodePacked(block.timestamp, ms...\n      PUSH 20\t\t\tcodePacked(block.timestamp, ms...\n      DUP2 \t\t\tcodePacked(block.timestamp, ms...\n      DUP4 \t\t\tcodePacked(block.timestamp, ms...\n      SUB \t\t\tcodePacked(block.timestamp, ms...\n      SUB \t\t\tcodePacked(block.timestamp, ms...\n      DUP2 \t\t\tcodePacked(block.timestamp, ms...\n      MSTORE \t\t\tcodePacked(block.timestamp, ms...\n      SWAP1 \t\t\tcodePacked(block.timestamp, ms...\n      PUSH 40\t\t\tcodePacked(block.timestamp, ms...\n      MSTORE \t\t\tcodePacked(block.timestamp, ms...\n      DUP1 \t\t\t256(\\n                    abi....\n      MLOAD \t\t\t256(\\n                    abi....\n      SWAP1 \t\t\t256(\\n                    abi....\n      PUSH 20\t\t\t256(\\n                    abi....\n      ADD \t\t\t256(\\n                    abi....\n      KECCAK256 \t\t\t256(\\n                    abi....\n      PUSH 0\t\t\t                keccak256(\\n  ...\n      SHR \t\t\t                keccak256(\\n  ...\n      PUSH [tag] 63\t\t\t                keccak256(\\n  ...\n      SWAP2 \t\t\t                keccak256(\\n  ...\n      SWAP1 \t\t\t                keccak256(\\n  ...\n      PUSH [tag] 64\t\t\t                keccak256(\\n  ...\n      JUMP \t\t\t                keccak256(\\n  ...\n    tag 63\t\t\t                keccak256(\\n  ...\n      JUMPDEST \t\t\t                keccak256(\\n  ...\n      SWAP1 \t\t\t\\n            uint(\\n         ...\n      POP \t\t\t\\n            uint(\\n         ...\n      SWAP2 \t\t\tfunction random(uint _modulus)...\n      SWAP1 \t\t\tfunction random(uint _modulus)...\n      POP \t\t\tfunction random(uint _modulus)...\n      JUMP \t\t\tfunction random(uint _modulus)...\n    tag 38\t\t\t\n      JUMPDEST \t\t\t\n      POP \t\t\t\n      DUP1 \t\t\t\n      SLOAD \t\t\t\n      PUSH 0\t\t\t\n      DUP3 \t\t\t\n      SSTORE \t\t\t\n      SWAP1 \t\t\t\n      PUSH 0\t\t\t\n      MSTORE \t\t\t\n      PUSH 20\t\t\t\n      PUSH 0\t\t\t\n      KECCAK256 \t\t\t\n      SWAP1 \t\t\t\n      DUP2 \t\t\t\n      ADD \t\t\t\n      SWAP1 \t\t\t\n      PUSH [tag] 66\t\t\t\n      SWAP2 \t\t\t\n      SWAP1 \t\t\t\n      PUSH [tag] 67\t\t\t\n      JUMP \t\t\t\n    tag 66\t\t\t\n      JUMPDEST \t\t\t\n      POP \t\t\t\n      JUMP \t\t\t\n    tag 67\t\t\t\n      JUMPDEST \t\t\t\n    tag 68\t\t\t\n      JUMPDEST \t\t\t\n      DUP1 \t\t\t\n      DUP3 \t\t\t\n      GT \t\t\t\n      ISZERO \t\t\t\n      PUSH [tag] 69\t\t\t\n      JUMPI \t\t\t\n      PUSH 0\t\t\t\n      DUP2 \t\t\t\n      PUSH 0\t\t\t\n      SWAP1 \t\t\t\n      SSTORE \t\t\t\n      POP \t\t\t\n      PUSH 1\t\t\t\n      ADD \t\t\t\n      PUSH [tag] 68\t\t\t\n      JUMP \t\t\t\n    tag 69\t\t\t\n      JUMPDEST \t\t\t\n      POP \t\t\t\n      SWAP1 \t\t\t\n      JUMP \t\t\t\n    tag 70\t\t\t-License-Identifier: GPL-3.0\\n...\n      JUMPDEST \t\t\t-License-Identifier: GPL-3.0\\n...\n      PUSH 0\t\t\tsolidit\n      PUSH FFFFFFFFFFFFFFFFFFFFFFFFFFFFFFFFFFFFFFFF\t\t\tLoterie\\n * @dev Store & retri...\n      DUP3 \t\t\t@titl\n      AND \t\t\t\\n * @title Loterie\\n * @dev S...\n      SWAP1 \t\t\t0.9.0;\\n\\n/**\\n * @title Loter...\n      POP \t\t\t0.9.0;\\n\\n/**\\n * @title Loter...\n      SWAP2 \t\t\t-License-Identifier: GPL-3.0\\n...\n      SWAP1 \t\t\t-License-Identifier: GPL-3.0\\n...\n      POP \t\t\t-License-Identifier: GPL-3.0\\n...\n      JUMP \t\t\t-License-Identifier: GPL-3.0\\n...\n    tag 71\t\t\t/\\ncontract Loterie {\\n\\n    u...\n      JUMPDEST \t\t\t/\\ncontract Loterie {\\n\\n    u...\n      PUSH 0\t\t\tvate ra\n      PUSH [tag] 97\t\t\tublic price;\\n\\n    addres\n      DUP3 \t\t\taddre\n      PUSH [tag] 70\t\t\tublic price;\\n\\n    addres\n      JUMP \t\t\tublic price;\\n\\n    addres\n    tag 97\t\t\tublic price;\\n\\n    addres\n      JUMPDEST \t\t\tublic price;\\n\\n    addres\n      SWAP1 \t\t\t  uint256 public price;\\n\\n   ...\n      POP \t\t\t  uint256 public price;\\n\\n   ...\n      SWAP2 \t\t\t/\\ncontract Loterie {\\n\\n    u...\n      SWAP1 \t\t\t/\\ncontract Loterie {\\n\\n    u...\n      POP \t\t\t/\\ncontract Loterie {\\n\\n    u...\n      JUMP \t\t\t/\\ncontract Loterie {\\n\\n    u...\n    tag 72\t\t\tpants;\\n    address owner;\\n\\n...\n      JUMPDEST \t\t\tpants;\\n    address owner;\\n\\n...\n      PUSH [tag] 99\t\t\t    price = p * 10**16;\\n\n      DUP2 \t\t\t**16;\n      PUSH [tag] 71\t\t\t    price = p * 10**16;\\n\n      JUMP \t\t\t    price = p * 10**16;\\n\n    tag 99\t\t\t    price = p * 10**16;\\n\n      JUMPDEST \t\t\t    price = p * 10**16;\\n\n      DUP3 \t\t\t\\n  \n      MSTORE \t\t\tsender;\\n        price = p * 1...\n      POP \t\t\tpants;\\n    address owner;\\n\\n...\n      POP \t\t\tpants;\\n    address owner;\\n\\n...\n      JUMP \t\t\tpants;\\n    address owner;\\n\\n...\n    tag 10\t\t\tnction randomDraw() public ret...\n      JUMPDEST \t\t\tnction randomDraw() public ret...\n      PUSH 0\t\t\ter c\n      PUSH 20\t\t\tti\n      DUP3 \t\t\trequire(p\n      ADD \t\t\t    require(partic\n      SWAP1 \t\t\t\");\\n        require(partic\n      POP \t\t\t\");\\n        require(partic\n      PUSH [tag] 101\t\t\tgth > 2, \"The numbers of parti...\n      PUSH 0\t\t\t \n      DUP4 \t\t\t 2\");\\n\\n  \n      ADD \t\t\tthan 2\");\\n\\n      \n      DUP5 \t\t\te larg\n      PUSH [tag] 72\t\t\tgth > 2, \"The numbers of parti...\n      JUMP \t\t\tgth > 2, \"The numbers of parti...\n    tag 101\t\t\tgth > 2, \"The numbers of parti...\n      JUMPDEST \t\t\tgth > 2, \"The numbers of parti...\n      SWAP3 \t\t\tnction randomDraw() public ret...\n      SWAP2 \t\t\tnction randomDraw() public ret...\n      POP \t\t\tnction randomDraw() public ret...\n      POP \t\t\tnction randomDraw() public ret...\n      JUMP \t\t\tnction randomDraw() public ret...\n    tag 73\t\t\ter = participants[random(parti...\n      JUMPDEST \t\t\ter = participants[random(parti...\n      PUSH 0\t\t\t.length\n      DUP2 \t\t\tnner)\n      SWAP1 \t\t\t payable(winner)\n      POP \t\t\t payable(winner)\n      SWAP2 \t\t\ter = participants[random(parti...\n      SWAP1 \t\t\ter = participants[random(parti...\n      POP \t\t\ter = participants[random(parti...\n      JUMP \t\t\ter = participants[random(parti...\n    tag 74\t\t\tdress(this).balance);\\n\\n     ...\n      JUMPDEST \t\t\tdress(this).balance);\\n\\n     ...\n      PUSH [tag] 104\t\t\tfunction random(uint _mo\n      DUP2 \t\t\tnt _m\n      PUSH [tag] 73\t\t\tfunction random(uint _mo\n      JUMP \t\t\tfunction random(uint _mo\n    tag 104\t\t\tfunction random(uint _mo\n      JUMPDEST \t\t\tfunction random(uint _mo\n      DUP3 \t\t\t\\n  \n      MSTORE \t\t\t\\n    }\\n\\n    function random...\n      POP \t\t\tdress(this).balance);\\n\\n     ...\n      POP \t\t\tdress(this).balance);\\n\\n     ...\n      JUMP \t\t\tdress(this).balance);\\n\\n     ...\n    tag 15\t\t\te returns (uint) {\\n        ra...\n      JUMPDEST \t\t\te returns (uint) {\\n        ra...\n      PUSH 0\t\t\t    \n      PUSH 20\t\t\t  \n      DUP3 \t\t\t(\\n       \n      ADD \t\t\tuint(\\n            \n      SWAP1 \t\t\t        uint(\\n            \n      POP \t\t\t        uint(\\n            \n      PUSH [tag] 106\t\t\t256(\\n                    abi....\n      PUSH 0\t\t\tr\n      DUP4 \t\t\t, msg.sen\n      ADD \t\t\ttamp, msg.sender,\n      DUP5 \t\t\tock.ti\n      PUSH [tag] 74\t\t\t256(\\n                    abi....\n      JUMP \t\t\t256(\\n                    abi....\n    tag 106\t\t\t256(\\n                    abi....\n      JUMPDEST \t\t\t256(\\n                    abi....\n      SWAP3 \t\t\te returns (uint) {\\n        ra...\n      SWAP2 \t\t\te returns (uint) {\\n        ra...\n      POP \t\t\te returns (uint) {\\n        ra...\n      POP \t\t\te returns (uint) {\\n        ra...\n      JUMP \t\t\te returns (uint) {\\n        ra...\n    tag 75\t\t\t       randNonce)\\n           ...\n      JUMPDEST \t\t\t       randNonce)\\n           ...\n      PUSH 0\t\t\tn getSolde(\n      DUP3 \t\t\tuint) \n      DUP3 \t\t\trns\n      MSTORE \t\t\tew returns (uint) {\n      PUSH 20\t\t\tance\n      DUP3 \t\t\t).b\n      ADD \t\t\tthis).balance;\n      SWAP1 \t\t\treturn address(this).balance;\n      POP \t\t\treturn address(this).balance;\n      SWAP3 \t\t\t       randNonce)\\n           ...\n      SWAP2 \t\t\t       randNonce)\\n           ...\n      POP \t\t\t       randNonce)\\n           ...\n      POP \t\t\t       randNonce)\\n           ...\n      JUMP \t\t\t       randNonce)\\n           ...\n    tag 76\t\t\tfunction participate() public ...\n      JUMPDEST \t\t\tfunction participate() public ...\n      PUSH 4F6E6C79206F776E65722063616E20646F207468617421000000000000000000\t\t\t\"Price must be equal to t\n      PUSH 0\t\t\tc\n      DUP3 \t\t\te == p\n      ADD \t\t\tvalue == price\n      MSTORE \t\t\tre(msg.value == price, \"Price ...\n      POP \t\t\tfunction participate() public ...\n      JUMP \t\t\tfunction participate() public ...\n    tag 77\t\t\ted by the owner of the lottery...\n      JUMPDEST \t\t\ted by the owner of the lottery...\n      PUSH 0\t\t\t   \n      PUSH [tag] 110\t\t\tants[i] == msg.sender) {\\n    ...\n      PUSH 17\t\t\ttr\n      DUP4 \t\t\tnt \n      PUSH [tag] 75\t\t\tants[i] == msg.sender) {\\n    ...\n      JUMP \t\t\tants[i] == msg.sender) {\\n    ...\n    tag 110\t\t\tants[i] == msg.sender) {\\n    ...\n      JUMPDEST \t\t\tants[i] == msg.sender) {\\n    ...\n      SWAP2 \t\t\tarticipants[i] == msg.sender) ...\n      POP \t\t\tarticipants[i] == msg.sender) ...\n      PUSH [tag] 111\t\t\t          break;\\n            ...\n      DUP3 \t\t\tipa\n      PUSH [tag] 76\t\t\t          break;\\n            ...\n      JUMP \t\t\t          break;\\n            ...\n    tag 111\t\t\t          break;\\n            ...\n      JUMPDEST \t\t\t          break;\\n            ...\n      PUSH 20\t\t\tra\n      DUP3 \t\t\t se\n      ADD \t\t\tpate several\n      SWAP1 \t\t\tparticipate several\n      POP \t\t\tparticipate several\n      SWAP2 \t\t\ted by the owner of the lottery...\n      SWAP1 \t\t\ted by the owner of the lottery...\n      POP \t\t\ted by the owner of the lottery...\n      JUMP \t\t\ted by the owner of the lottery...\n    tag 25\t\t\t      \\n        participants.p...\n      JUMPDEST \t\t\t      \\n        participants.p...\n      PUSH 0\t\t\t\n      PUSH 20\t\t\t\n      DUP3 \t\t\t\n      ADD \t\t\t\n      SWAP1 \t\t\t\n      POP \t\t\t\n      DUP2 \t\t\t\n      DUP2 \t\t\t\n      SUB \t\t\t\n      PUSH 0\t\t\t\n      DUP4 \t\t\t\n      ADD \t\t\t\n      MSTORE \t\t\t\n      PUSH [tag] 113\t\t\t\n      DUP2 \t\t\t\n      PUSH [tag] 77\t\t\t\n      JUMP \t\t\t\n    tag 113\t\t\t\n      JUMPDEST \t\t\t\n      SWAP1 \t\t\t\n      POP \t\t\t\n      SWAP2 \t\t\t      \\n        participants.p...\n      SWAP1 \t\t\t      \\n        participants.p...\n      POP \t\t\t      \\n        participants.p...\n      JUMP \t\t\t      \\n        participants.p...\n    tag 78\t\t\t\n      JUMPDEST \t\t\t\n      PUSH 546865206E756D62657273206F66207061727469636970616E7473206D757374\t\t\t\n      PUSH 0\t\t\t\n      DUP3 \t\t\t\n      ADD \t\t\t\n      MSTORE \t\t\t\n      PUSH 206265206C6172676572207468616E2032000000000000000000000000000000\t\t\t\n      PUSH 20\t\t\t\n      DUP3 \t\t\t\n      ADD \t\t\t\n      MSTORE \t\t\t\n      POP \t\t\t\n      JUMP \t\t\t\n    tag 79\t\t\t\n      JUMPDEST \t\t\t\n      PUSH 0\t\t\t\n      PUSH [tag] 116\t\t\t\n      PUSH 31\t\t\t\n      DUP4 \t\t\t\n      PUSH [tag] 75\t\t\t\n      JUMP \t\t\t\n    tag 116\t\t\t\n      JUMPDEST \t\t\t\n      SWAP2 \t\t\t\n      POP \t\t\t\n      PUSH [tag] 117\t\t\t\n      DUP3 \t\t\t\n      PUSH [tag] 78\t\t\t\n      JUMP \t\t\t\n    tag 117\t\t\t\n      JUMPDEST \t\t\t\n      PUSH 40\t\t\t\n      DUP3 \t\t\t\n      ADD \t\t\t\n      SWAP1 \t\t\t\n      POP \t\t\t\n      SWAP2 \t\t\t\n      SWAP1 \t\t\t\n      POP \t\t\t\n      JUMP \t\t\t\n    tag 28\t\t\t\n      JUMPDEST \t\t\t\n      PUSH 0\t\t\t\n      PUSH 20\t\t\t\n      DUP3 \t\t\t\n      ADD \t\t\t\n      SWAP1 \t\t\t\n      POP \t\t\t\n      DUP2 \t\t\t\n      DUP2 \t\t\t\n      SUB \t\t\t\n      PUSH 0\t\t\t\n      DUP4 \t\t\t\n      ADD \t\t\t\n      MSTORE \t\t\t\n      PUSH [tag] 119\t\t\t\n      DUP2 \t\t\t\n      PUSH [tag] 79\t\t\t\n      JUMP \t\t\t\n    tag 119\t\t\t\n      JUMPDEST \t\t\t\n      SWAP1 \t\t\t\n      POP \t\t\t\n      SWAP2 \t\t\t\n      SWAP1 \t\t\t\n      POP \t\t\t\n      JUMP \t\t\t\n    tag 33\t\t\t\n      JUMPDEST \t\t\t\n      PUSH 4E487B7100000000000000000000000000000000000000000000000000000000\t\t\t\n      PUSH 0\t\t\t\n      MSTORE \t\t\t\n      PUSH 32\t\t\t\n      PUSH 4\t\t\t\n      MSTORE \t\t\t\n      PUSH 24\t\t\t\n      PUSH 0\t\t\t\n      REVERT \t\t\t\n    tag 80\t\t\t\n      JUMPDEST \t\t\t\n      PUSH 4F776E65722063616E2774207061727469636970617465000000000000000000\t\t\t\n      PUSH 0\t\t\t\n      DUP3 \t\t\t\n      ADD \t\t\t\n      MSTORE \t\t\t\n      POP \t\t\t\n      JUMP \t\t\t\n    tag 81\t\t\t\n      JUMPDEST \t\t\t\n      PUSH 0\t\t\t\n      PUSH [tag] 123\t\t\t\n      PUSH 17\t\t\t\n      DUP4 \t\t\t\n      PUSH [tag] 75\t\t\t\n      JUMP \t\t\t\n    tag 123\t\t\t\n      JUMPDEST \t\t\t\n      SWAP2 \t\t\t\n      POP \t\t\t\n      PUSH [tag] 124\t\t\t\n      DUP3 \t\t\t\n      PUSH [tag] 80\t\t\t\n      JUMP \t\t\t\n    tag 124\t\t\t\n      JUMPDEST \t\t\t\n      PUSH 20\t\t\t\n      DUP3 \t\t\t\n      ADD \t\t\t\n      SWAP1 \t\t\t\n      POP \t\t\t\n      SWAP2 \t\t\t\n      SWAP1 \t\t\t\n      POP \t\t\t\n      JUMP \t\t\t\n    tag 43\t\t\t\n      JUMPDEST \t\t\t\n      PUSH 0\t\t\t\n      PUSH 20\t\t\t\n      DUP3 \t\t\t\n      ADD \t\t\t\n      SWAP1 \t\t\t\n      POP \t\t\t\n      DUP2 \t\t\t\n      DUP2 \t\t\t\n      SUB \t\t\t\n      PUSH 0\t\t\t\n      DUP4 \t\t\t\n      ADD \t\t\t\n      MSTORE \t\t\t\n      PUSH [tag] 126\t\t\t\n      DUP2 \t\t\t\n      PUSH [tag] 81\t\t\t\n      JUMP \t\t\t\n    tag 126\t\t\t\n      JUMPDEST \t\t\t\n      SWAP1 \t\t\t\n      POP \t\t\t\n      SWAP2 \t\t\t\n      SWAP1 \t\t\t\n      POP \t\t\t\n      JUMP \t\t\t\n    tag 82\t\t\t\n      JUMPDEST \t\t\t\n      PUSH 5072696365206D75737420626520657175616C20746F20746865207072696365\t\t\t\n      PUSH 0\t\t\t\n      DUP3 \t\t\t\n      ADD \t\t\t\n      MSTORE \t\t\t\n      PUSH 20646566696E656420627920746865206F776E6572206F6620746865206C6F74\t\t\t\n      PUSH 20\t\t\t\n      DUP3 \t\t\t\n      ADD \t\t\t\n      MSTORE \t\t\t\n      PUSH 7465727900000000000000000000000000000000000000000000000000000000\t\t\t\n      PUSH 40\t\t\t\n      DUP3 \t\t\t\n      ADD \t\t\t\n      MSTORE \t\t\t\n      POP \t\t\t\n      JUMP \t\t\t\n    tag 83\t\t\t\n      JUMPDEST \t\t\t\n      PUSH 0\t\t\t\n      PUSH [tag] 129\t\t\t\n      PUSH 44\t\t\t\n      DUP4 \t\t\t\n      PUSH [tag] 75\t\t\t\n      JUMP \t\t\t\n    tag 129\t\t\t\n      JUMPDEST \t\t\t\n      SWAP2 \t\t\t\n      POP \t\t\t\n      PUSH [tag] 130\t\t\t\n      DUP3 \t\t\t\n      PUSH [tag] 82\t\t\t\n      JUMP \t\t\t\n    tag 130\t\t\t\n      JUMPDEST \t\t\t\n      PUSH 60\t\t\t\n      DUP3 \t\t\t\n      ADD \t\t\t\n      SWAP1 \t\t\t\n      POP \t\t\t\n      SWAP2 \t\t\t\n      SWAP1 \t\t\t\n      POP \t\t\t\n      JUMP \t\t\t\n    tag 46\t\t\t\n      JUMPDEST \t\t\t\n      PUSH 0\t\t\t\n      PUSH 20\t\t\t\n      DUP3 \t\t\t\n      ADD \t\t\t\n      SWAP1 \t\t\t\n      POP \t\t\t\n      DUP2 \t\t\t\n      DUP2 \t\t\t\n      SUB \t\t\t\n      PUSH 0\t\t\t\n      DUP4 \t\t\t\n      ADD \t\t\t\n      MSTORE \t\t\t\n      PUSH [tag] 132\t\t\t\n      DUP2 \t\t\t\n      PUSH [tag] 83\t\t\t\n      JUMP \t\t\t\n    tag 132\t\t\t\n      JUMPDEST \t\t\t\n      SWAP1 \t\t\t\n      POP \t\t\t\n      SWAP2 \t\t\t\n      SWAP1 \t\t\t\n      POP \t\t\t\n      JUMP \t\t\t\n    tag 84\t\t\t\n      JUMPDEST \t\t\t\n      PUSH 41207061727469636970616E742063616E6E6F74207061727469636970617465\t\t\t\n      PUSH 0\t\t\t\n      DUP3 \t\t\t\n      ADD \t\t\t\n      MSTORE \t\t\t\n      PUSH 207365766572616C2074696D6573000000000000000000000000000000000000\t\t\t\n      PUSH 20\t\t\t\n      DUP3 \t\t\t\n      ADD \t\t\t\n      MSTORE \t\t\t\n      POP \t\t\t\n      JUMP \t\t\t\n    tag 85\t\t\t\n      JUMPDEST \t\t\t\n      PUSH 0\t\t\t\n      PUSH [tag] 135\t\t\t\n      PUSH 2E\t\t\t\n      DUP4 \t\t\t\n      PUSH [tag] 75\t\t\t\n      JUMP \t\t\t\n    tag 135\t\t\t\n      JUMPDEST \t\t\t\n      SWAP2 \t\t\t\n      POP \t\t\t\n      PUSH [tag] 136\t\t\t\n      DUP3 \t\t\t\n      PUSH [tag] 84\t\t\t\n      JUMP \t\t\t\n    tag 136\t\t\t\n      JUMPDEST \t\t\t\n      PUSH 40\t\t\t\n      DUP3 \t\t\t\n      ADD \t\t\t\n      SWAP1 \t\t\t\n      POP \t\t\t\n      SWAP2 \t\t\t\n      SWAP1 \t\t\t\n      POP \t\t\t\n      JUMP \t\t\t\n    tag 56\t\t\t\n      JUMPDEST \t\t\t\n      PUSH 0\t\t\t\n      PUSH 20\t\t\t\n      DUP3 \t\t\t\n      ADD \t\t\t\n      SWAP1 \t\t\t\n      POP \t\t\t\n      DUP2 \t\t\t\n      DUP2 \t\t\t\n      SUB \t\t\t\n      PUSH 0\t\t\t\n      DUP4 \t\t\t\n      ADD \t\t\t\n      MSTORE \t\t\t\n      PUSH [tag] 138\t\t\t\n      DUP2 \t\t\t\n      PUSH [tag] 85\t\t\t\n      JUMP \t\t\t\n    tag 138\t\t\t\n      JUMPDEST \t\t\t\n      SWAP1 \t\t\t\n      POP \t\t\t\n      SWAP2 \t\t\t\n      SWAP1 \t\t\t\n      POP \t\t\t\n      JUMP \t\t\t\n    tag 86\t\t\t\n      JUMPDEST \t\t\t\n      PUSH 4E487B7100000000000000000000000000000000000000000000000000000000\t\t\t\n      PUSH 0\t\t\t\n      MSTORE \t\t\t\n      PUSH 11\t\t\t\n      PUSH 4\t\t\t\n      MSTORE \t\t\t\n      PUSH 24\t\t\t\n      PUSH 0\t\t\t\n      REVERT \t\t\t\n    tag 60\t\t\t\n      JUMPDEST \t\t\t\n      PUSH 0\t\t\t\n      PUSH [tag] 141\t\t\t\n      DUP3 \t\t\t\n      PUSH [tag] 73\t\t\t\n      JUMP \t\t\t\n    tag 141\t\t\t\n      JUMPDEST \t\t\t\n      SWAP2 \t\t\t\n      POP \t\t\t\n      PUSH FFFFFFFFFFFFFFFFFFFFFFFFFFFFFFFFFFFFFFFFFFFFFFFFFFFFFFFFFFFFFFFF\t\t\t\n      DUP3 \t\t\t\n      SUB \t\t\t\n      PUSH [tag] 142\t\t\t\n      JUMPI \t\t\t\n      PUSH [tag] 143\t\t\t\n      PUSH [tag] 86\t\t\t\n      JUMP \t\t\t\n    tag 143\t\t\t\n      JUMPDEST \t\t\t\n    tag 142\t\t\t\n      JUMPDEST \t\t\t\n      PUSH 1\t\t\t\n      DUP3 \t\t\t\n      ADD \t\t\t\n      SWAP1 \t\t\t\n      POP \t\t\t\n      SWAP2 \t\t\t\n      SWAP1 \t\t\t\n      POP \t\t\t\n      JUMP \t\t\t\n    tag 87\t\t\t\n      JUMPDEST \t\t\t\n      PUSH 0\t\t\t\n      DUP2 \t\t\t\n      SWAP1 \t\t\t\n      POP \t\t\t\n      SWAP2 \t\t\t\n      SWAP1 \t\t\t\n      POP \t\t\t\n      JUMP \t\t\t\n    tag 88\t\t\t\n      JUMPDEST \t\t\t\n      PUSH [tag] 146\t\t\t\n      PUSH [tag] 147\t\t\t\n      DUP3 \t\t\t\n      PUSH [tag] 73\t\t\t\n      JUMP \t\t\t\n    tag 147\t\t\t\n      JUMPDEST \t\t\t\n      PUSH [tag] 87\t\t\t\n      JUMP \t\t\t\n    tag 146\t\t\t\n      JUMPDEST \t\t\t\n      DUP3 \t\t\t\n      MSTORE \t\t\t\n      POP \t\t\t\n      POP \t\t\t\n      JUMP \t\t\t\n    tag 89\t\t\t\n      JUMPDEST \t\t\t\n      PUSH 0\t\t\t\n      DUP2 \t\t\t\n      PUSH 60\t\t\t\n      SHL \t\t\t\n      SWAP1 \t\t\t\n      POP \t\t\t\n      SWAP2 \t\t\t\n      SWAP1 \t\t\t\n      POP \t\t\t\n      JUMP \t\t\t\n    tag 90\t\t\t\n      JUMPDEST \t\t\t\n      PUSH 0\t\t\t\n      PUSH [tag] 150\t\t\t\n      DUP3 \t\t\t\n      PUSH [tag] 89\t\t\t\n      JUMP \t\t\t\n    tag 150\t\t\t\n      JUMPDEST \t\t\t\n      SWAP1 \t\t\t\n      POP \t\t\t\n      SWAP2 \t\t\t\n      SWAP1 \t\t\t\n      POP \t\t\t\n      JUMP \t\t\t\n    tag 91\t\t\t\n      JUMPDEST \t\t\t\n      PUSH 0\t\t\t\n      PUSH [tag] 152\t\t\t\n      DUP3 \t\t\t\n      PUSH [tag] 90\t\t\t\n      JUMP \t\t\t\n    tag 152\t\t\t\n      JUMPDEST \t\t\t\n      SWAP1 \t\t\t\n      POP \t\t\t\n      SWAP2 \t\t\t\n      SWAP1 \t\t\t\n      POP \t\t\t\n      JUMP \t\t\t\n    tag 92\t\t\t\n      JUMPDEST \t\t\t\n      PUSH [tag] 154\t\t\t\n      PUSH [tag] 155\t\t\t\n      DUP3 \t\t\t\n      PUSH [tag] 71\t\t\t\n      JUMP \t\t\t\n    tag 155\t\t\t\n      JUMPDEST \t\t\t\n      PUSH [tag] 91\t\t\t\n      JUMP \t\t\t\n    tag 154\t\t\t\n      JUMPDEST \t\t\t\n      DUP3 \t\t\t\n      MSTORE \t\t\t\n      POP \t\t\t\n      POP \t\t\t\n      JUMP \t\t\t\n    tag 62\t\t\t\n      JUMPDEST \t\t\t\n      PUSH 0\t\t\t\n      PUSH [tag] 157\t\t\t\n      DUP3 \t\t\t\n      DUP7 \t\t\t\n      PUSH [tag] 88\t\t\t\n      JUMP \t\t\t\n    tag 157\t\t\t\n      JUMPDEST \t\t\t\n      PUSH 20\t\t\t\n      DUP3 \t\t\t\n      ADD \t\t\t\n      SWAP2 \t\t\t\n      POP \t\t\t\n      PUSH [tag] 158\t\t\t\n      DUP3 \t\t\t\n      DUP6 \t\t\t\n      PUSH [tag] 92\t\t\t\n      JUMP \t\t\t\n    tag 158\t\t\t\n      JUMPDEST \t\t\t\n      PUSH 14\t\t\t\n      DUP3 \t\t\t\n      ADD \t\t\t\n      SWAP2 \t\t\t\n      POP \t\t\t\n      PUSH [tag] 159\t\t\t\n      DUP3 \t\t\t\n      DUP5 \t\t\t\n      PUSH [tag] 88\t\t\t\n      JUMP \t\t\t\n    tag 159\t\t\t\n      JUMPDEST \t\t\t\n      PUSH 20\t\t\t\n      DUP3 \t\t\t\n      ADD \t\t\t\n      SWAP2 \t\t\t\n      POP \t\t\t\n      DUP2 \t\t\t\n      SWAP1 \t\t\t\n      POP \t\t\t\n      SWAP5 \t\t\t\n      SWAP4 \t\t\t\n      POP \t\t\t\n      POP \t\t\t\n      POP \t\t\t\n      POP \t\t\t\n      JUMP \t\t\t\n    tag 93\t\t\t\n      JUMPDEST \t\t\t\n      PUSH 4E487B7100000000000000000000000000000000000000000000000000000000\t\t\t\n      PUSH 0\t\t\t\n      MSTORE \t\t\t\n      PUSH 12\t\t\t\n      PUSH 4\t\t\t\n      MSTORE \t\t\t\n      PUSH 24\t\t\t\n      PUSH 0\t\t\t\n      REVERT \t\t\t\n    tag 64\t\t\t\n      JUMPDEST \t\t\t\n      PUSH 0\t\t\t\n      PUSH [tag] 162\t\t\t\n      DUP3 \t\t\t\n      PUSH [tag] 73\t\t\t\n      JUMP \t\t\t\n    tag 162\t\t\t\n      JUMPDEST \t\t\t\n      SWAP2 \t\t\t\n      POP \t\t\t\n      PUSH [tag] 163\t\t\t\n      DUP4 \t\t\t\n      PUSH [tag] 73\t\t\t\n      JUMP \t\t\t\n    tag 163\t\t\t\n      JUMPDEST \t\t\t\n      SWAP3 \t\t\t\n      POP \t\t\t\n      DUP3 \t\t\t\n      PUSH [tag] 164\t\t\t\n      JUMPI \t\t\t\n      PUSH [tag] 165\t\t\t\n      PUSH [tag] 93\t\t\t\n      JUMP \t\t\t\n    tag 165\t\t\t\n      JUMPDEST \t\t\t\n    tag 164\t\t\t\n      JUMPDEST \t\t\t\n      DUP3 \t\t\t\n      DUP3 \t\t\t\n      MOD \t\t\t\n      SWAP1 \t\t\t\n      POP \t\t\t\n      SWAP3 \t\t\t\n      SWAP2 \t\t\t\n      POP \t\t\t\n      POP \t\t\t\n      JUMP \t\t\t\n    .data\n"
}